:060000000A128A110C280F
:10000800FE00030EF0000A08F1000A128A11992E68
:100018000A128A110F280A128A1124270A128A1131
:10002800EC0083132030840053300A128A111227FF
:100038000A128A11EB01FA01FB0183010A128A11E3
:100048002528831603138501860187018801890104
:100058000A128A11E7260A128A110A128A114B25F6
:100068000A128A110A128A11F9260A128A11F20151
:1000780001300A128A1170260A128A116830F600B5
:100088008030F7000A128A11FE250A128A110A1214
:100098008A111A270A128A1150300A128A1108275F
:1000A8000A128A1172300A128A1108270A128A1152
:1000B80065300A128A1108270A128A116D300A124D
:1000C8008A1108270A128A1169300A128A11082728
:1000D8000A128A1120300A128A1108270A128A1174
:1000E8002A300A128A1108270A128A110D300A12B8
:1000F8008A1108270A128A110A300A128A11082757
:100108000A128A110A128A11B9260A128A11FB00E8
:100118000A128A11B9260A128A11FA000A128A11D9
:10012800B9260A128A1183120313CF000A128A1100
:10013800B9260A128A1183120313CE000A128A11F1
:10014800B9260A128A1183120313CD00C0280A1295
:100158008A11EB220A128A11831203134C08013EFA
:1001680084000A128A117A230A128A112A3A031D74
:10017800BE28BF28C028C52836080319C428C528A2
:10018800AB28F20101300A128A1170260A128A116C
:100198005530F6008030F7000A128A11FE250A123F
:1001A8008A110A128A111A270A128A11E1280A12D8
:1001B8008A11B9260A128A11FB0030307B0603190E
:1001C800E628E7281D2931307B060319EC28ED289D
:1001D8001D2932307B060319F228F3281D293330F4
:1001E8007B060319F828F9281D2934307B060319E2
:1001F800FE28FF281D2935307B0603190429052907
:100208001D2936307B0603190A290B291D29373089
:100218007B060319102911291D2938307B0603197B
:10022800162917291D2939307B06031D1C291D296C
:10023800DB28F20101300A128A1170260A128A118B
:100248004A30F6008030F7000A128A11FE250A1299
:100258008A1134290A128A11B9260A128A11FA0057
:1002680030307A06031939293A29702931307A064B
:1002780003193F294029702932307A060319452984
:100288004629702933307A0603194B294C297029DD
:1002980034307A06031951295229702935307A06E3
:1002A800031957295829702936307A0603195D2908
:1002B8005E29702937307A06031963296429702961
:1002C80038307A06031969296A29702939307A067B
:1002D800031D6F2970292E29F20101300A128A1193
:1002E80070260A128A113E30F6008030F7000A1292
:1002F8008A11FE250A128A1189290A128A11B92639
:100308000A128A1183120313CF00303083120313A9
:100318004F06031990299129C72933304F0603192D
:1003280096299729C72932304F0603199C299D29F8
:10033800C72933304F060319A229A329C729343006
:100348004F060319A829A929C72935304F060319CB
:10035800AE29AF29C72936304F060319B429B52964
:10036800C72937304F060319BA29BB29C72938309E
:100378004F060319C029C129C72939304F06031D63
:10038800C629C7298129F20101300A128A1170266B
:100398000A128A113130F6008030F7000A128A11E9
:1003A800FE250A128A11E0290A128A11B9260A12B0
:1003B8008A1183120313CE003030831203134E06C2
:1003C8000319E729E8291E2A34304E060319ED29B6
:1003D800EE291E2A32304E060319F329F4291E2A63
:1003E80033304E060319F929FA291E2A34304E06ED
:1003F8000319FF29002A1E2A35304E060319052A3B
:10040800062A1E2A36304E0603190B2A0C2A1E2AE3
:1004180037304E060319112A122A1E2A38304E0682
:100428000319172A182A1E2A39304E06031D1D2AB9
:100438001E2AD829F20101300A128A1170260A12DE
:100448008A112330F6008030F7000A128A11FE253F
:100458000A128A11372A0A128A11B9260A128A112F
:1004680083120313CD003030831203134D06031992
:100478003E2A3F2A752A35304D060319442A452A53
:10048800752A32304D0603194A2A4B2A752A333009
:100498004D060319502A512A752A34304D0603197E
:1004A800562A572A752A35304D0603195C2A5D2AC3
:1004B800752A36304D060319622A632A752A3730A1
:1004C8004D060319682A692A752A38304D0603191A
:1004D8006E2A6F2A752A39304D06031D742A752A2B
:1004E8002F2A7B080A128A1108270A128A117A0809
:1004F8000A128A1108270A128A11831203134F0855
:100508000A128A1108270A128A11831203134E0845
:100518000A128A1108270A128A11831203134D0836
:100528000A128A1108270A128A110D300A128A1132
:1005380008270A128A110A300A128A1108270A1291
:100548008A11F20101300A128A1170260A128A11E0
:10055800F201F20A7B080A128A1170260A128A111D
:10056800F201F20A7A080A128A1170260A128A110E
:10057800F201F20A831203134F080A128A11702635
:100588000A128A11F201F20A831203134E080A12A0
:100598008A1170260A128A11F201F20A83120313D1
:1005A8004D080A128A1170260A128A11831203133F
:1005B800CC010A128A111F270A128A110A128A11FB
:1005C8006B240A128A113B280A128A110C280F3050
:1005D800F20072088316031388048312CA010608FE
:1005E800073886004A08113E84000A128A117A23C5
:1005F8000A128A11F20072088605C90149080D3EDF
:1006080084000A128A117A230A128A110805031D26
:100618000E2B0F2B182B6B1C122B132B182B6B105C
:100628000130F2007208C80749080D3E84000A121A
:100638008A117A230A128A1108050319242B252BFB
:10064800462B6B18282B292B462B4130F300EE3014
:10065800F200F20B2D2BF30B2D2B0000831203134A
:1006680049080D3E84000A128A117A230A128A1157
:1006780008050319402B412B462B6B18442B452B9F
:10068800462B6B144808470603194B2B4C2B5A2B47
:100698004A08F20002300310F20DFF3E031D4F2BF3
:1006A80049087207CC004808C7006F2B0130F200D8
:1006B8007208C90704304902031C632B642B022B00
:1006C8000130F2007208CA0703304A02031C6D2B7E
:1006D8006E2BF32AF12A0800FF1B7A2B83137F184D
:1006E80083170008840A0319FF0A080003308A00E8
:1006F8000408840A8207003423343734343431340C
:100708002A343834353432343034393436343334A6
:100718000134023404340834FE34FD34FB344334E9
:100728006F34643469346334653420345334633447
:1007380061346434753474346F340034413474343F
:10074800743465346E3464346534723465342E34EC
:100758002E342E342E3400344134743474346534D9
:100768006E3464346534723465342E342E342E3449
:10077800003441347434743465346E34643465340C
:10078800723465342E342E34003441347434743465
:1007980065346E3464346534723465342E34003410
:1007A80041347434743465346E346434653472346A
:1007B80065340034523469346334653476347534BE
:1007C80074346F3400345034723465346D346934A1
:1007D80020342A34003483120313E601E60AF82B86
:1007E8000130E2006208E6076608F6000A300A12DD
:1007F8008A1144260A128A1183120313E200E301C4
:100808006208D7006308D8006008DA005F08D900DA
:100818000A128A11E2240A128A1183120313570852
:100828005804031D182C192CF42BE7015D2C6708BC
:100838006602FF3EF6000A300A128A1144260A129E
:100848008A1183120313E50067086107E200620852
:1008580084006508E300E4016308D7006408D80051
:100868006008DA005F08D9000A128A11E2240A1225
:100878008A11831203135708303E831380006508DA
:10088800E200E3016208F2006308F3006008F50083
:100898005F08F4000A128A11A5250A128A11730842
:1008A80083120313E0007208DF000130E2006208DF
:1008B800E70766086702031C622C632C1B2C670879
:1008C8006107E20062088400831380010800C92CD4
:1008D8008C1A6F2C702CA12C6C08E800E9016808B0
:1008E800DF006908E0005030E1000A128A11EF23A6
:1008F8000A128A11F201C0300A128A1170260A12ED
:100908008A115030F6000030F7000A128A11FE25CD
:100918000A128A11013083120313EC020630831283
:100928000313EA001330E900AD30E800E80B9A2C15
:10093800E90B9A2CEA0B9A2CC92CF20101300A1205
:100948008A1170260A128A115F30F6008030F7008B
:100958000A128A11FE250A128A11831203138C12B5
:100968003C30EC001A3083120313EA005E30E900D1
:100978006D30E800E80BBE2CE90BBE2CEA0BBE2C50
:10098800C52C831203131A08E12C831203136C0875
:10099800031DCF2CD02C6C2CF20101300A128A11C5
:1009A80070260A128A111430F6008030F7000A12F5
:1009B8008A11FE250A128A11B12C0800831203132A
:1009C800DC01D81FE82CE92CF02CD709D809D70A64
:1009D8000319D80ADC01DC0ADA1FF32CF42CFD2CED
:1009E800D909DA09D90A0319DA0A0130F8007808AE
:1009F800DC06DD01DE01570858040319042D052D16
:100A08003C2DDB01DB0A132D01300310D70DD80D67
:100A1800FF3E031D092D0130F8007808DB07D81FB9
:100A2800162D172D082D01300310DD0DDE0DFF3EAC
:100A3800031D182D58085A02031D242D5708590262
:100A4800031C272D282D2F2D5708D9025808031CC1
:100A5800DA03DA025D1401300310D80CD70CFF3E1C
:100A6800031D302D0130DB02031D3B2D3C2D172DBE
:100A78005C080319402D412D462DDD09DE09DD0AEC
:100A88000319DE0A5E08D8005D08D7000800831243
:100A98000313091189108230F700DD30F600F60BD8
:100AA800532DF70B532D582D831203138914F2017C
:100AB80038300A128A1170260A128A112130F7007A
:100AC8007630F600F60B662DF70B662D0000F20166
:100AD80038300A128A1170260A128A110730F70074
:100AE8007D30F600F60B762DF70B762DF2013830B7
:100AF8000A128A1170260A128A11F20108300A12A3
:100B08008A1170260A128A11F2010F300A128A110C
:100B180070260A128A11F20101300A128A1170260F
:100B28000A128A11F2010C300A128A1170260A126E
:100B38008A11F20180300A128A1170260A128A116B
:100B48000800F801F51FA92DAA2DB12DF409F50902
:100B5800F40A0319F50AF801F80AF31FB42DB52DA4
:100B6800BA2DF209F309F20A0319F30A7208730499
:100B78000319BF2DC02DEF2DF701F70ACE2D013037
:100B88000310F20DF30DFF3E031DC42D0130F600D6
:100B98007608F707F31FD12DD22DC32D73087502E0
:100BA800031DD82D72087402031CDB2DDC2DE22DE9
:100BB8007208F4027308031CF503F50201300310F0
:100BC800F30CF20CFF3E031DE32D0130F702031D69
:100BD800EE2DEF2DD22D78080319F32DF42DF92DD4
:100BE800F409F509F40A0319F50A7508F3007408FD
:100BF800F2000800F801F901252EF201F20A78083E
:100C08007607D4007708D3000318D30AF81F0D2EEF
:100C1800D303831203135308D5005508FF00540863
:100C280084000A128A1170230A128A110A128A1180
:100C380070260A128A110130F8070318F90A0030E1
:100C4800F9077808760783120313D4007708D300CE
:100C58000318D30AF81F312ED30383120313530842
:100C6800D5005508FF00540884000A128A11702321
:100C78000A128A11003A031D422E432E012E080043
:100C880083120313D300D601D60AD401D5015F2EEF
:100C9800831203135308F20056080A128A11D22647
:100CA8000A128A1183120313D6000130D4070318DD
:100CB800D50A0030D5075508803AF700803077020A
:100CC800031D682E76085402031C6B2E6C2E4C2EC6
:100CD8008312031356080800F500831603138801CE
:100CE8008910091183120313891475088800720C7E
:100CF800031C0911031809151430F4007930F300A6
:100D0800F30B842EF40B842E892E8312031389107F
:100D18001430F4007930F300F30B902EF40B902E7E
:100D2800952E83120313891408000B1D9C2E9D2EEB
:100D3800992E0B110B1DA12EA22E9E2E0B110B1DF1
:100D4800A62EA72EA32E0B110B1DAB2EAC2EA82E54
:100D58000B110B1DB02EB12EAD2E0B1171088A0090
:100D6800700E8300FE0E7E0E0900F201F301C22E02
:100D78000130F2070318F30A0030F3074030720617
:100D88001F3003197306031DCA2ECB2EBC2E8312E7
:100D980003130108F4000B1174080800F500F401AE
:100DA800751CD72ED82EDC2E7208F3007308F407B2
:100DB8000310F20D0310F50C7508031DE42EE52E43
:100DC800D42E740808008316031307138717181501
:100DD80033309900181283120313981783160313DC
:100DE800981683120313181608008316031381122A
:100DF8008111011581140114063083120313810037
:100E08000B118B168B170800F200831203130C1EAC
:100E18000E2F0F2F092F7208990008006400800117
:100E2800840A0406031900340406132F83120313DB
:100E3800071487100800831203130710871408008B
:020E48003C3438
:08400000FF3FFF3FFF3FFF3FC0
:02400E003A3F37
:00000001FF
