:100000000A128A1110280134FE00030EF1000408C0
:10001000F2000A08F3007F08F4000A128A11BE2ECB
:100020000A128A1113280A128A1103200A128A114D
:10003000E8000A128A11FF270A128A11F9008313B5
:10004000A0308400B0300A128A1536250A128A11AF
:100050002030840048300A128A1536250A128A1187
:10006000F501F601F701F80183010A128A11382817
:1000700083160313850186018701880189010A120D
:100080008A1557250A128A110A128A1589260A1218
:100090008A110A128A1548250A128A11831203133B
:1000A000C80101300A128A1569250A128A117830AE
:1000B00083120313CA008030CB000A128A15D82598
:1000C0000A128A110A128A11FA270A128A1150306A
:1000D0000A128A153E250A128A1172300A128A15EE
:1000E0003E250A128A1165300A128A153E250A1227
:1000F0008A116D300A128A153E250A128A1169305A
:100100000A128A153E250A128A1120300A128A150F
:100110003E250A128A112A300A128A153E250A1231
:100120008A110D300A128A153E250A128A110A30E8
:100130000A128A153E250A128A110A128A157E258C
:100140000A128A1183120313C4000A128A157E252B
:100150000A128A1183120313C3000A128A157E251C
:100160000A128A1183120313C2000A128A157E250D
:100170000A128A1183120313C1000A128A157E25FE
:100180000A128A1183120313C000DB280A128A158F
:1001900073270A128A11831203133A08013E84005E
:1001A0000A128A150A200A128A112A3A031DD9282E
:1001B000DA28DB28E02826080319DF28E028C628EB
:1001C000C80101300A128A1569250A128A116E3097
:1001D00083120313CA008030CB000A128A15D82577
:1001E0000A128A11FB280A128A157E250A128A1120
:1001F00083120313C400303083120313440603191F
:10020000022903293929313044060319082909290B
:1002100039293230440603190E290F293929333080
:1002200044060319142915293929343044060319C1
:100230001A291B2939293530440603192029212977
:100240003929363044060319262927293929373018
:10025000440603192C292D2939293830440603195D
:1002600032293329392939304406031D38293929DF
:10027000F328C80101300A128A1569250A128A1169
:10028000583083120313CA008030CB000A128A153B
:10029000D8250A128A1154290A128A157E250A12B3
:1002A0008A1183120313C3003030831203134306F1
:1002B00003195B295C29922931304306031961290E
:1002C0006229922932304306031967296829922945
:1002D0003330430603196D296E29922934304306C1
:1002E0000319732974299229353043060319792992
:1002F0007A2992293630430603197F2980299229C9
:100300003730430603198529862992293830430658
:1003100003198B298C29922939304306031D912911
:1003200092294C29C80101300A128A1569250A123E
:100330008A114C3083120313CA008030CB000A129A
:100340008A15D8250A128A11AD290A128A157E2526
:100350000A128A1183120313C2003030831203136E
:1003600042060319B429B529EB2931304206031995
:10037000BA29BB29EB29323042060319C029C12909
:10038000EB29333042060319C629C729EB2934303B
:1003900042060319CC29CD29EB2935304206031931
:1003A000D229D329EB29363042060319D829D92975
:1003B000EB29373042060319DE29DF29EB293830D3
:1003C00042060319E429E529EB2939304206031DC9
:1003D000EA29EB29A529C80101300A128A156925E5
:1003E0000A128A113F3083120313CA008030CB00F7
:1003F0000A128A15D8250A128A11062A0A128A15A3
:100400007E250A128A1183120313C1003030831231
:100410000313410603190D2A0E2A442A31304106DE
:100420000319132A142A442A323041060319192ABF
:100430001A2A442A3330410603191F2A202A442A43
:10044000343041060319252A262A442A353041062C
:1004500003192B2A2C2A442A363041060319312A43
:10046000322A442A373041060319372A382A442AC7
:100470003830410603193D2A3E2A442A39304106C4
:10048000031D432A442AFE29C80101300A128A1595
:1004900069250A128A11233083120313CA0080309F
:1004A000CB000A128A15D8250A128A115F2A0A126D
:1004B0008A157E250A128A1183120313C000303078
:1004C0008312031340060319662A672A9D2A3130D6
:1004D000400603196C2A6D2A9D2A32304006031902
:1004E000722A732A9D2A333040060319782A792A02
:1004F0009D2A3430400603197E2A7F2A9D2A3530F2
:1005000040060319842A852A9D2A3630400603199D
:100510008A2A8B2A9D2A373040060319902A912A6D
:100520009D2A383040060319962A972A9D2A393089
:100530004006031D9C2A9D2A572A01300A128A155B
:100540003E250A128A1183120313B401B40A013042
:100550000A128A153E250A128A11831203134408CF
:100560000A128A153E250A128A11831203134308C0
:100570000A128A153E250A128A11831203134208B1
:100580000A128A153E250A128A11831203134108A2
:100590000A128A153E250A128A1183120313400893
:1005A0000A128A153E250A128A112A300A128A1561
:1005B0003E250A128A1183120313C80101300A1260
:1005C0008A1569250A128A1183120313C801C80A01
:1005D00044080A128A1569250A128A118312031324
:1005E000C801C80A43080A128A1569250A128A1125
:1005F00083120313C801C80A42080A128A15692522
:100600000A128A1183120313C801C80A41080A1288
:100610008A1569250A128A1183120313C801C80AB0
:1006200040080A128A1569250A128A1183120313D7
:10063000BA010A128A1531250A128A110130831271
:100640000313B0000030B1000A128A1132230A12DB
:100650008A110A128A113A250A128A114E280A12A0
:100660008A11102883120313E7013C30F9000C2D86
:10067000053083120313670603193F2B402B752C9B
:100680003A080319442B452B722B6708031D492B8D
:100690004A2B722BC80101300A128A1569250A12E9
:1006A0008A1183120313C801C80A3A08013E840064
:1006B0000A128A150A200A128A110A128A15692555
:1006C0000A128A11831203133A08013E84000A12A7
:1006D0008A150A200A128A11BF00BA010130E4000B
:1006E0006408E7073A080319762B772BA52B6703D5
:1006F000031D7B2B7C2BA52BC8016708803E0A12AB
:100700008A1569250A128A1183120313C801C80ABF
:100710003A08013E84000A128A150A200A128A1138
:100720000A128A1569250A128A11831203133A08DC
:10073000013E84000A128A150A200A128A11BE009C
:10074000BA010130E4006408E7073A080319A92B4D
:10075000AA2BD92B02306706031DAF2BB02BD92B48
:10076000C8016708803E0A128A1569250A128A1193
:1007700083120313C801C80A3A08013E84000A1212
:100780008A150A200A128A110A128A1569250A1284
:100790008A11831203133A08013E84000A128A1553
:1007A0000A200A128A11BD00BA010130E40064086F
:1007B000E7073A080319DD2BDE2B0D2C0330670603
:1007C000031DE32BE42B0D2CC8016708803E0A12A1
:1007D0008A1569250A128A1183120313C801C80AEF
:1007E0003A08013E84000A128A150A200A128A1168
:1007F0000A128A1569250A128A11831203133A080C
:10080000013E84000A128A150A200A128A11BC00CD
:10081000BA010130E4006408E7073A080319112C13
:10082000122C412C04306706031D172C182C412C68
:10083000C8016708803E0A128A1569250A128A11C2
:1008400083120313C801C80A3A08013E84000A1241
:100850008A150A200A128A110A128A1569250A12B3
:100860008A11831203133A08013E84000A128A1582
:100870000A200A128A11BB00BA010130E4006408A0
:10088000E7077908E400E5016408DB006508DC009F
:100890004530DD000A128A15F7260A128A118312E2
:1008A0000313C801C0300A128A1569250A128A1179
:1008B000453083120313CA000030CB000A128A1598
:1008C000D8250A128A110130F9020330831203136A
:1008D000E6000830E5007630E400E40B6D2CE50B13
:1008E0006D2CE60B6D2C00000C2D0A128A11FA27D4
:1008F0000A128A1101300A128A153E250A128A113B
:1009000002300A128A153E250A128A118312031335
:1009100044080A128A153E250A128A11831203130B
:1009200043080A128A153E250A128A1183120313FC
:1009300042080A128A153E250A128A1183120313ED
:1009400041080A128A153E250A128A1183120313DE
:1009500040080A128A153E250A128A1183120313CF
:100960003F080A128A153E250A128A1183120313C0
:100970003E080A128A153E250A128A1183120313B1
:100980003D080A128A153E250A128A1183120313A2
:100990003C080A128A153E250A128A118312031393
:1009A0003B080A128A153E250A128A112A300A12B9
:1009B0008A153E250A128A110A128A1531250A1251
:1009C0008A1183120313C80101300A128A1569259E
:1009D0000A128A11803083120313CA008030CB00C0
:1009E0000A128A15D8250A128A11831203138C124F
:1009F0003C30F900033083120313E6008A30E5002F
:100A00005530E400E40B022DE50B022DE60B022D20
:100A1000831203131A08392D7908031D102D112D87
:100A2000382B83120313C80101300A128A15692575
:100A30000A128A11143083120313CA008030CB00CB
:100A40000A128A15D8250A128A11831203138C12EE
:100A50003C30F900063083120313E6001330E50042
:100A6000AD30E400E40B322DE50B322DE60B322DD8
:100A7000082D08009E2E831203138C1A402D412D41
:100A8000982EC80101300A128A1569250A128A11A6
:100A90006E3083120313CA008030CB000A128A150D
:100AA000D8250A128A11790883120313E400E5019C
:100AB0006408DB006508DC004530DD000A128A1599
:100AC000F7260A128A1183120313C801C0300A12D2
:100AD0008A1569250A128A11453083120313CA0048
:100AE0000030CB000A128A15D8250A128A1101306B
:100AF000F902023083120313E6008630E5009830D5
:100B0000E400E40B812DE50B812DE60B812D000027
:100B10009E2E7908E400E5016408DB006508DC002E
:100B20004530DD000A128A15F7260A128A1183124F
:100B30000313C801C0300A128A1569250A128A11E6
:100B4000453083120313CA000030CB000A128A1505
:100B5000D8250A128A110130F902023083120313D8
:100B6000E6008630E5009830E400E40BB52DE50B97
:100B7000B52DE60BB52D0000831203131A03031DD8
:100B8000C22DC32D942EC80101300A128A15692581
:100B90000A128A1183120313C801C80A1A080A121A
:100BA0008A1569250A128A11831203138C121A08F6
:100BB0008F2E831203138C1ADE2DDF2D8A2E7908D7
:100BC000E400E5016408DB006508DC004530DD0079
:100BD0000A128A15F7260A128A1183120313C80112
:100BE000C0300A128A1569250A128A11453083120B
:100BF0000313CA000030CB000A128A15D8250A1246
:100C00008A110130F902023083120313E6008630A4
:100C1000E5009830E400E40B0B2EE50B0B2EE60B01
:100C20000B2E00008F2E7908E400E5016408DB003C
:100C30006508DC004530DD000A128A15F7260A1225
:100C40008A1183120313C801C0300A128A1569255C
:100C50000A128A11453083120313CA000030CB00F8
:100C60000A128A15D8250A128A110130F9020230B7
:100C700083120313E6008630E5009830E400E40BAD
:100C80003F2EE50B3F2EE60B3F2E00008312031391
:100C90001A03031D4C2E4D2E882EC80181300A12D6
:100CA0008A1569250A128A1183120313C801C80A1A
:100CB0001A080A128A1569250A128A118312031367
:100CC0008C121A083C30F900C801C0300A128A158B
:100CD00069250A128A11633083120313CA00803017
:100CE000CB000A128A15D8250A128A1106308312FF
:100CF0000313E6001330E500AD30E400E40B7E2E74
:100D0000E50B7E2EE60B7E2E831203131A08BD2EF2
:100D10008C121A087908031D8E2E8F2E132E790837
:100D2000031D932E942ED92D831203138C121A08AF
:100D30007908031D9C2E9D2E892D3A2D7908031DBF
:100D4000A22EA32E3B2D83120313C80101300A12D9
:100D50008A1569250A128A11313083120313CA00D9
:100D60008030CB000A128A15D8250A128A11831204
:100D700003138C123C30F900762E08000B1DC12E97
:100D8000C22EBE2E0B110B1DC62EC72EC32E0B114D
:100D90000B1DCB2ECC2EC82E0B110B1DD02ED12E01
:100DA000CD2E0B110B1DD52ED62ED22E0B110B1DB9
:100DB000DA2EDB2ED72E0B110B1DDF2EE02EDC2EB4
:100DC0000B110B1DE42EE52EE12E0B110B1DE92E50
:100DD000EA2EE62E0B110B1DEE2EEF2EEB2E0B1135
:100DE0000B1DF32EF42EF02E0B110B1DF82EF92EE9
:100DF000F52E0B110B1DFD2EFE2EFA2E0B110B1DC9
:100E0000022F032FFF2E0B110B1D072F082F042F6E
:100E10000B118312031330033104031D102F112F04
:100E2000942F0F30F0007008831603138804F70125
:100E300003307702031C1D2F1E2F1F2F912F8312AB
:100E40000608073886007708113E84000A128A15C2
:100E50000A200A128A11F00070088605F601043093
:100E60007602031C342F352F362F8C2F76080D3E3B
:100E700084000A128A150A200A128A110805031D25
:100E8000422F432F4C2F781C462F472F4C2F781082
:100E90000130F0007008F50776080D3E84000A1254
:100EA0008A150A200A128A1108050319582F592F8A
:100EB0006F2F78185C2F5D2F6F2F76080D3E840002
:100EC0000A128A150A200A128A1108050319692FC5
:100ED0006A2F6F2F78186D2F6E2F6F2F781475086B
:100EE00038060319742F752F822F7708F00002300F
:100EF0000310F00DFF3E031D782F76087007BA002F
:100F00007508B8000130F0007008F607043076026A
:100F1000031C8B2F8C2F362F0130F0007008F70741
:100F2000182F8316031308087408FF0073088A003B
:100F300072088400710E8300FE0E7E0E090083127B
:100F40000313CE01CB1FA52FA62FAD2FCA09CB09A6
:100F5000CA0A0319CB0ACE01CE0AC91FB02FB12F7E
:100F6000B62FC809C909C80A0319C90A480849049B
:100F70000319BB2FBC2FEB2FCD01CD0ACA2F013097
:100F80000310C80DC90DFF3E031DC02F0130CC005A
:100F90004C08CD07C91FCD2FCE2FBF2F49084B02BC
:100FA000031DD42F48084A02031CD72FD82FDE2F49
:100FB0004808CA024908031CCB03CB0201300310C6
:100FC000C90CC80CFF3E031DDF2F0130CD02031DED
:100FD000EA2FEB2FCE2F4E080319EF2FF02FF52F0E
:100FE000CA09CB09CA0A0319CB0A4B08C9004A0827
:100FF000C8000800831203130714871008003C344C
:10100000FF1B0A2883137F1883170008840A03191B
:10101000FF0A080008308A000408840A82070034A6
:1010200023343734343431342A3438343534323498
:10103000303439343634333401340234043408342F
:10104000FE34FD34FB3443346F3464346934633428
:101050006534203453346334613464347534743407
:101060006F34003441347434743465346E34643411
:101070006534723465342E342E342E342E340034DC
:10108000543465346D3470346F34203453346334E5
:1010900061346434753474346F34003441347434DE
:1010A000743465346E3464346534723465342E348B
:1010B0002E342E34003441347434743465346E3438
:1010C00064346534723465342E342E340034413443
:1010D0007434743465346E34643465347234653415
:1010E0002E34003441345034523449342034503496
:1010F0004F345234543441340034413474347434F1
:1011000065346E346434653472346534003450347C
:10111000723465346D34693420342A3400344D34EB
:0E11200061346E346434613474346F340034DE
:101A62008312031307108714080064008001840A9C
:101A72000406031900340406372D83120313C80029
:101A82000C1E442D452D412D48089900080083164F
:101A9200031381128111011581140114063083127E
:101AA200031381000B118B168B1708008316031387
:101AB200071387171815333099001812831203136E
:101AC2009817831603139816831203131816080027
:101AD20083120313C90083160313880189100911A5
:101AE20083120313891449088800480C031C091146
:101AF2000318091589108914080083120313C901F8
:101B0200CA01892D0130C9070318CA0A0030CA0761
:101B1200BA3049064A04031D8F2D902D832D0108EA
:101B2200C8000B114808080083120313CB00CA0136
:101B32004B1C9C2D9D2DA12D4808C9004908CA07A0
:101B42000310C80D0310CB0C4B08031DA92DAA2DA1
:101B5200992D4A08080083120313CE00D101D10A3D
:101B6200CF01D001C72D831203134E08C8005108BC
:101B72000A128A1595250A128A1583120313D100B7
:101B82000130CF070318D00A0030D0075008803A3E
:101B9200CD0080304D02031DD02D4C084F02031C96
:101BA200D32DD42DB42D83120313510808008312B0
:101BB2000313CF01D001032EC801C80A4F084A07F8
:101BC200CD004B08CC000318CC0ACF1FE92DCC0363
:101BD200831203134C08CE004E08FF004D08840008
:101BE2000A128A1500200A128A150A128A15692514
:101BF2000A128A15013083120313CF070318D00A81
:101C02000030D0074F084A07CD004B08CC0003181C
:101C1200CC0ACF1F0D2ECC03831203134C08CE0027
:101C22004E08FF004D0884000A128A1500200A128D
:101C32008A15003A031D1E2E1F2EDD2D0800831269
:101C42000313D801D31F262E272E2E2ED209D309F5
:101C5200D20A0319D30AD801D80AD51F312E322E3F
:101C62003B2ED409D509D40A0319D50A0130D6006E
:101C72005608D806D901DA01520853040319422E34
:101C8200432E7A2ED701D70A512E01300310D20DDE
:101C9200D30DFF3E031D472E0130D6005608D7074D
:101CA200D31F542E552E462E01300310D90DDA0DB6
:101CB200FF3E031D562E53085502031D622E520885
:101CC2005402031C652E662E6D2E5208D402530850
:101CD200031CD503D502591401300310D30CD20CC6
:101CE200FF3E031D6E2E0130D702031D792E7A2E80
:101CF200552E580803197E2E7F2E842ED909DA0913
:101D0200D90A0319DA0A5A08D3005908D20008007E
:101D12008312031309118910823083120313CB003B
:101D2200DD30CA00CA0B932ECB0B932E8312031302
:101D32008914C80138300A128A1569250A128A15CF
:101D4200213083120313CB007530CA00CA0BA72EB1
:101D5200CB0BA72EAC2E83120313C80138300A1204
:101D62008A1569250A128A15073083120313CB00DC
:101D72007C30CA00CA0BBB2ECB0BBB2E00008312D9
:101D82000313C80138300A128A1569250A128A1506
:101D920083120313C80108300A128A1569250A1230
:101DA2008A1583120313C8010F300A128A15692596
:101DB2000A128A1583120313C80101300A128A1506
:101DC20069250A128A1583120313C8010C300A12FC
:101DD2008A1569250A128A1583120313C8018030F5
:101DE2000A128A1569250A128A150800831203133A
:101DF200E201E20A002F0130DE005E08E20762081B
:101E0200CC000A300A128A15AC250A128A158312EE
:101E12000313DE00DF015E08D2005F08D3005C0816
:101E2200D5005B08D4000A128A1520260A128A15E8
:101E32008312031352085304031D202F212FFC2E5B
:101E4200E301652F63086202FF3ECC000A300A12EA
:101E52008A15AC250A128A1583120313E10063085E
:101E62005D07DE005E0884006108DF00E0015F08B4
:101E7200D2006008D3005C08D5005B08D4000A12C7
:101E82008A1520260A128A15831203135208303E3D
:101E9200831380006108DE00DF015E08C8005F086E
:101EA200C9005C08CB005B08CA000A128A119F278E
:101EB2000A128A15831203134908DC004808DB0062
:101EC2000130DE005E08E30762086302031C6A2F2A
:101ED2006B2F232F63085D07DE005E0884008313E7
:101EE200800108000F3083120313C80048088316CC
:101EF20003138804F70103307702031C812F822F1A
:101F0200832F7B2F83120313060807388600770876
:101F1200113E84000A128A150A200A128A15C80084
:101F220048088605F60104307602031C992F9A2F81
:101F32009B2FFA2F76080D3E84000A128A150A207A
:101F42000A128A150805031DA72FA82FB12F781C86
:101F5200AB2FAC2FB12F78100130C8004808F5071D
:101F620076080D3E84000A128A150A200A128A1582
:101F720008050319BD2FBE2FE12F7818C12FC22FDC
:101F8200E12F413083120313C900ED30C800C80BA2
:101F9200C82FC90BC82FCD2F76080D3E84000A1218
:101FA2008A150A200A128A158312031308050319D7
:101FB200DB2FDC2FE12F7818DF2FE02FE12F7814B1
:101FC200750838060319E62FE72FF52F7708C800A2
:101FD20002300310C80DFF3E031DEA2F76084807A2
:101FE200BA007508B800FF2F0130C8004808F6078C
:0E1FF200942F0130C8004808F7077C2F080024
:08400000FF3FFF3FFF3FFF3FC0
:02400E003A3F37
:00000001FF
