:060000000A128A1110280B
:10000800FE00030EF1000408F2000A08F3007F085E
:10001800F4000A128A11FD2C0A128A1113280A12F6
:100028008A11FF270A128A11EE00831320308400F8
:1000380051300A128A157E260A128A11F501F60134
:10004800F701F801F90183010A128A112B28831696
:100058000313850186018701880189010A128A151F
:100068009F260A128A110A128A1165270A128A1112
:100078000A128A1590260A128A1183120313D101D3
:1000880001300A128A15B1260A128A115F308312CA
:100098000313D3008030D4000A128A15F4260A12FA
:1000A8008A110A128A1579260A128A1150300A1200
:1000B8008A1586260A128A1172300A128A1586262D
:1000C8000A128A1165300A128A1586260A128A11BE
:1000D8006D300A128A1586260A128A1169300A12A8
:1000E8008A1586260A128A1120300A128A1586264F
:1000F8000A128A112A300A128A1586260A128A11C9
:100108000D300A128A1586260A128A110A300A1236
:100118008A1586260A128A110A128A15C6260A1212
:100128008A1183120313CD000A128A15C6260A12F1
:100138008A1183120313CC000A128A15C6260A12E2
:100148008A1183120313CB000A128A15C6260A12D3
:100158008A1183120313CA000A128A15C6260A12C4
:100168008A1183120313C900CE280A128A11DE25C8
:100178000A128A11831203134808013E84000A12E6
:100188008A1175260A128A112A3A031DCC28CD280D
:10019800CE28D32836080319D228D328B928D10164
:1001A80001300A128A15B1260A128A1155308312B3
:1001B8000313D3008030D4000A128A15F4260A12D9
:1001C8008A110A128A1579260A128A11F3280A1244
:1001D8008A15C6260A128A1183120313CD003030FD
:1001E800831203134D060319FA28FB2831293130ED
:1001F8004D06031900290129312932304D0603190A
:1002080006290729312933304D0603190C290D29F0
:10021800312934304D060319122913293129353073
:100228004D06031918291929312936304D060319A5
:100238001E291F29312937304D060319242925295C
:10024800312938304D0603192A292B29312939300B
:100258004D06031D30293129EB28D10101300A123E
:100268008A15B1260A128A114A3083120313D30061
:100278008030D4000A128A15F4260A128A114C29F1
:100288000A128A15C6260A128A1183120313CC0091
:100298003030831203134C060319532954298A2931
:1002A80031304C06031959295A298A2932304C060B
:1002B80003195F2960298A2933304C0603196529F7
:1002C80066298A2934304C0603196B296C298A2936
:1002D80035304C060319712972298A2936304C06A3
:1002E8000319772978298A2937304C0603197D297B
:1002F8007E298A2938304C060319832984298A29BA
:1003080039304C06031D89298A294429D101013035
:100318000A128A15B1260A128A113E308312031373
:10032800D3008030D4000A128A15F4260A128A11E2
:10033800A5290A128A15C6260A128A1183120313DE
:10034800CB003030831203134B060319AC29AD29B7
:10035800E32931304B060319B229B329E329323096
:100368004B060319B829B929E32933304B06031979
:10037800BE29BF29E32934304B060319C429C529EE
:10038800E32935304B060319CA29CB29E32936302E
:100398004B060319D029D129E32937304B06031915
:1003A800D629D729E32938304B060319DC29DD295A
:1003B800E32939304B06031DE229E3299D29D101A0
:1003C80001300A128A15B1260A128A1131308312B5
:1003D8000313D3008030D4000A128A15F4260A12B7
:1003E8008A11FE290A128A15C6260A128A11831250
:1003F8000313CA003030831203134A060319052A6F
:10040800062A3C2A31304A0603190B2A0C2A3C2AB0
:1004180032304A060319112A122A3C2A33304A0676
:100428000319172A182A3C2A34304A0603191D2AA8
:100438001E2A3C2A35304A060319232A242A3C2A34
:1004480036304A060319292A2A2A3C2A37304A060E
:1004580003192F2A302A3C2A38304A060319352A2C
:10046800362A3C2A39304A06031D3B2A3C2AF629FB
:10047800D10101300A128A15B1260A128A112330D5
:1004880083120313D3008030D4000A128A15F4268D
:100498000A128A11572A0A128A15C6260A128A11BE
:1004A80083120313C900303083120313490603195A
:1004B8005E2A5F2A952A313049060319642A652A7B
:1004C800952A3230490603196A2A6B2A952A33304D
:1004D80049060319702A712A952A343049060319E6
:1004E800762A772A952A3530490603197C2A7D2AE7
:1004F800952A363049060319822A832A952A3730E5
:1005080049060319882A892A952A38304906031981
:100518008E2A8F2A952A39304906031D942A952A4E
:100528004F2A4D080A128A1586260A128A11831242
:1005380003134C080A128A1586260A128A11831296
:1005480003134B080A128A1586260A128A11831287
:1005580003134A080A128A1586260A128A11831278
:10056800031349080A128A1586260A128A110D30C1
:100578000A128A1586260A128A110A300A128A1560
:1005880086260A128A1183120313D10101300A1236
:100598008A15B1260A128A1183120313D101D10ACE
:1005A8004D080A128A15B1260A128A1183120313FA
:1005B800D101D10A4C080A128A15B1260A128A11E9
:1005C80083120313D101D10A4B080A128A15B126E6
:1005D8000A128A1183120313D101D10A4A080A1296
:1005E8008A15B1260A128A1183120313D101D10A7E
:1005F80049080A128A15B1260A128A1183120313AE
:10060800C8010A128A1574260A128A110130831247
:100618000313C0000030C1000A128A1119230A12FC
:100628008A1141280A128A11102883120313ED0136
:100638003C30EE00E22C05306D060319242B252BE7
:10064800782C48080319292B2A2B5B2B6D08031DCE
:100658002E2B2F2B5B2BD10101300A128A15B126C4
:100668000A128A1183120313D101D10A4808013EE4
:1006780084000A128A1175260A128A110A128A152A
:10068800B1260A128A11831203134808013E840016
:100698000A128A1175260A128A11CD00C801013082
:1006A80083160313A000200883120313ED074808DC
:1006B80003195F2B602B922B6D03031D642B652B95
:1006C800922BD1016D08803E0A128A15B1260A12B2
:1006D8008A1183120313D101D10A4808013E84000C
:1006E8000A128A1175260A128A110A128A15B12667
:1006F8000A128A11831203134808013E84000A1261
:100708008A1175260A128A11CC00C8010130831695
:100718000313A000200883120313ED0748080319E8
:10072800962B972BCA2B02306D06031D9C2B9D2BF5
:10073800CA2BD1016D08803E0A128A15B1260A1209
:100748008A1183120313D101D10A4808013E84009B
:100758000A128A1175260A128A110A128A15B126F6
:100768000A128A11831203134808013E84000A12F0
:100778008A1175260A128A11CB00C8010130831626
:100788000313A000200883120313ED074808031978
:10079800CE2BCF2B022C03306D06031DD42BD52B6B
:1007A800022CD1016D08803E0A128A15B1260A1260
:1007B8008A1183120313D101D10A4808013E84002B
:1007C8000A128A1175260A128A110A128A15B12686
:1007D8000A128A11831203134808013E84000A1280
:1007E8008A1175260A128A11CA00C80101308316B7
:1007F8000313A000200883120313ED074808031908
:10080800062C072C3A2C04306D06031D0C2C0D2CDD
:100818003A2CD1016D08803E0A128A15B1260A12B7
:100828008A1183120313D101D10A4808013E8400BA
:100838000A128A1175260A128A110A128A15B12615
:100848000A128A11831203134808013E84000A120F
:100858008A1175260A128A11C900C8010130831647
:100868000313A000200883120313ED076E088316F4
:100878000313A000A101200883120313E4008316C8
:100888000313210883120313E5004E30E6000A1211
:100898008A11E9260A128A1183120313D101C03082
:1008A8000A128A15B1260A128A114E3083120313CE
:1008B800D3000030D4000A128A15F4260A128A11CD
:1008C800013083120313EE02033083160313A200D0
:1008D8000830A1007630A000A00B702CA10B702C62
:1008E800A20B702C0000E22C0A128A1579260A1233
:1008F8008A11831203134D080A128A1586260A12D2
:100908008A11831203134C080A128A1586260A12C2
:100918008A11831203134B080A128A1586260A12B3
:100928008A11831203134A080A128A1586260A12A4
:100938008A118312031349080A128A1586260A1295
:100948008A110D300A128A1586260A128A110A306F
:100958000A128A1586260A128A110A128A1574261C
:100968000A128A1183120313D10101300A128A155F
:10097800B1260A128A11673083120313D30080301C
:10098800D4000A128A15F4260A128A118312031354
:100998008C123C30EE001A3083160313A2005E302E
:1009A800A1006D30A000A00BD72CA10BD72CA20B57
:1009B800D72CDE2C831203131A08FC2C8312031382
:1009C8006E08031DE82CE92C1F2BD10101300A12F7
:1009D8008A15B1260A128A11143083120313D30020
:1009E8008030D4000A128A15F4260A128A11CA2CF9
:1009F80008000B1D002D012DFD2C0B110B1D052DC5
:100A0800062D022D0B110B1D0A2D0B2D072D0B1179
:100A18000B1D0F2D102D0C2D0B110B1D142D152D2D
:100A2800112D0B110B1D192D1A2D162D0B110B1D28
:100A38001E2D1F2D1B2D0B110B1D232D242D202D9D
:100A48000B110B1D282D292D252D0B110B1D2D2DBF
:100A58002E2D2A2D0B110B1D322D332D2F2D0B1161
:100A68000B1D372D382D342D0B110B1D3C2D3D2D15
:100A7800392D0B110B1D412D422D3E2D0B110B1D38
:100A8800462D472D432D0B118312031340034104B8
:100A9800031D4F2D502DD32D0F30F00070088316F5
:100AA80003138804F80103307802031C5C2D5D2DC4
:100AB8005E2DD02D83120608073886007808113E6F
:100AC80084000A128A1175260A128A11F000700829
:100AD8008605F70104307702031C732D742D752DDC
:100AE800CB2D77080D3E84000A128A1175260A124A
:100AF8008A110805031D812D822D8B2D791C852DCA
:100B0800862D8B2D79100130F0007008F6077708D4
:100B18000D3E84000A128A1175260A128A110805E8
:100B28000319972D982DAE2D79189B2D9C2DAE2D40
:100B380077080D3E84000A128A1175260A128A1156
:100B480008050319A82DA92DAE2D7918AC2DAD2DAA
:100B5800AE2D7914760875060319B32DB42DC12D61
:100B68007808F00002300310F00DFF3E031DB72D8A
:100B780077087007C8007608F5000130F0007008A3
:100B8800F70704307702031CCA2DCB2D752D0130D1
:100B9800F0007008F807572D831603130808740827
:100BA800FF0073088A0072088400710E8300FE0E2D
:100BB8007E0E09000F3083120313D10051088316EB
:100BC80003138804F80103307802031CEC2DED2D83
:100BD800EE2DE62D831203130608073886007808E1
:100BE800113E84000A128A1175260A128A11D10050
:100BF80051088605F70104307702031C042E052EE0
:100C0800062E652E77080D3E84000A128A11752675
:100C18000A128A110805031D122E132E1C2E791C88
:100C2800162E172E1C2E79100130D1005108F60708
:100C380077080D3E84000A128A1175260A128A1155
:100C480008050319282E292E4C2E79182C2E2D2E06
:100C58004C2E413083120313D200ED30D100D10B5A
:100C6800332ED20B332E382E77080D3E84000A120D
:100C78008A1175260A128A118312031308050319AB
:100C8800462E472E4C2E79184A2E4B2E4C2E791470
:100C9800760875060319512E522E602E7808D10059
:100CA80002300310D10DFF3E031D552E7708510762
:100CB800C8007608F5006A2E0130D1005108F70700
:100CC800FF2D0130D1005108F807E72D0800FF1B60
:100CD800752E83137F1883170008840A0319FF0AE7
:100CE800080006308A000408840A82070034233486
:100CF8003734343431342A343834353432343034B7
:100D08003934363433340134023404340834FE348C
:100D1800FD34FB3443346F346434693463346534EC
:100D280020345334633461346434753474346F3428
:100D3800003441347434743465346E346434653446
:100D4800723465342E342E342E342E34003441342B
:100D58007434743465346E34643465347234653490
:100D68002E342E342E3400344134743474346534C3
:100D78006E3464346534723465342E342E34003461
:100D880041347434743465346E3464346534723484
:100D980065342E34003441347434743465346E341C
:100DA80064346534723465340034503472346534D4
:100DB8006D34693420342A3400344D3461346E344F
:100DC8006434613474346F34003483120313EB01D8
:100DD800EB0AF22E0130E7006708EB076B08D50035
:100DE8000A300A128A11D3270A128A1183120313AE
:100DF800E700E8016708DB006808DC006508DE003A
:100E08006408DD000A128A1597270A128A118312CC
:100E180003135B085C04031D122F132FEE2EEC0145
:100E2800572F6C086B02FF3ED5000A300A128A1150
:100E3800D3270A128A1183120313EA006C08660783
:100E4800E700670884006A08E800E9016808DB0031
:100E58006908DC006508DE006408DD000A128A15EE
:100E680097270A128A11831203135B08303E8313F3
:100E780080006A08E700E8016708D1006808D20026
:100E88006508D4006408D3000A128A153C270A12A0
:100E98008A11831203135208E5005108E400013057
:100EA800E7006708EC076B086C02031C5C2F5D2FDA
:100EB800152F6C086607E700670884008313800114
:100EC8000800831203130911891082308312031357
:100ED800D400DD30D300D30B6F2FD40B6F2F8312C8
:100EE80003138914D10138300A128A15B1260A125F
:100EF8008A11213083120313D4007530D300D30B29
:100F0800832FD40B832F882F83120313D1013830FA
:100F18000A128A15B1260A128A110730831203139E
:100F2800D4007C30D300D30B972FD40B972F00001D
:100F380083120313D10138300A128A15B1260A1216
:100F48008A1183120313D10108300A128A15B126B7
:100F58000A128A1183120313D1010F300A128A155B
:100F6800B1260A128A1183120313D10101300A1221
:100F78008A15B1260A128A1183120313D1010C3083
:100F88000A128A15B1260A128A1183120313D10193
:100F980080300A128A15B1260A128A1108008312B3
:100FA8000313D700DA01DA0AD801D901EE2F831228
:100FB80003135708D1005A080A128A15DD260A12A7
:100FC8008A1183120313DA000130D8070318D90AEB
:100FD8000030D9075908803AD60080305602031DE0
:100FE800F72F55085802031CFA2FFB2FDB2F83120B
:080FF80003135A0808003C3401
:101CE80083120313071087140800831203130714C1
:101CF8008710080064008001840A04060319003470
:101D080004067F2E83120313D1000C1E8C2E8D2EF9
:101D1800892E510899000800831603138112811136
:101D280001158114011406308312031381000B116D
:101D38008B168B17080083160313071387171815BC
:101D4800333099001812831203139817831603135C
:101D58009816831203131816080083120313D2006F
:101D68008316031388018910091183120313891438
:101D780052088800510C031C091103180915891011
:101D88008914080083120313D201D301D12E013024
:101D9800D2070318D30A0030D307BA3052065304C7
:101DA800031DD72ED82ECB2E0108D1000B115108B8
:101DB800080083120313D400D301541CE42EE52E2B
:101DC800E92E5108D2005208D3070310D10D031091
:101DD800D40C5408031DF12EF22EE12E53080800EE
:101DE80083120313D801D9011F2FD101D10A580832
:101DF8005307D6005408D5000318D50AD81F052F55
:101E0800D503831203135508D7005708FF00560857
:101E180084000A128A116B260A128A150A128A1578
:101E2800B1260A128A15013083120313D807031842
:101E3800D90A0030D90758085307D6005408D500E6
:101E48000318D50AD81F292FD50383120313550861
:101E5800D7005708FF00560884000A128A116B261B
:101E68000A128A15003A031D3A2F3B2FF92E080053
:101E780083120313D701D41F422F432F4A2FD309AC
:101E8800D409D30A0319D40AD701D70AD21F4D2F70
:101E98004E2F532FD109D209D10A0319D20A51085A
:101EA80052040319582F592F882FD601D60A672FA5
:101EB80001300310D10DD20DFF3E031D5D2F0130FF
:101EC800D5005508D607D21F6A2F6B2F5C2F5208F2
:101ED8005402031D712F51085302031C742F752FD0
:101EE8007B2F5108D3025208031CD403D4020130BB
:101EF8000310D20CD10CFF3E031D7C2F0130D602FB
:101F0800031D872F882F6B2F570803198C2F8D2FB0
:101F1800922FD309D409D30A0319D40A5408D2003A
:101F28005308D100080083120313E101DC1F9D2F21
:101F38009E2FA52FDB09DC09DB0A0319DC0AE10166
:101F4800E10ADE1FA82FA92FB22FDD09DE09DD0A5D
:101F58000319DE0A0130DF005F08E106E201E30150
:101F68005B085C040319B92FBA2FF12FE001E00ACE
:101F7800C82F01300310DB0DDC0DFF3E031DBE2F03
:101F88000130DF005F08E007DC1FCB2FCC2FBD2F0F
:101F980001300310E20DE30DFF3E031DCD2F5C0859
:101FA8005E02031DD92F5B085D02031CDC2FDD2FA9
:101FB800E42F5B08DD025C08031CDE03DE0262140A
:101FC80001300310DC0CDB0CFF3E031DE52F013054
:101FD800E002031DF02FF12FCC2F61080319F52F14
:101FE800F62FFB2FE209E309E20A0319E30A630863
:081FF800DC006208DB000800B8
:08400000FF3FFF3FFF3FFF3FC0
:02400E003A3F37
:00000001FF
