:060000000A128A1110280B
:10000800FE00030EF1000408F2000A08F3007F085E
:10001800F4000A128A11EC2E0A128A1113280A1205
:100028008A11FF270A128A11EF000A128A11FE2785
:100038000A128A11F90083132030840053300A12FF
:100048008A1507250A128A11F501F601F701F80148
:1000580083010A128A113028831603138501860149
:100068008701880189010A128A1528250A128A112E
:100078000A128A1589260A128A110A128A1519255E
:100088000A128A1183120313D30101300A128A1546
:100098003A250A128A11783083120313D50080306A
:1000A800D6000A128A157D250A128A110A128A11A7
:1000B800F9270A128A1150300A128A150F250A12D6
:1000C8008A1172300A128A150F250A128A116530B0
:1000D8000A128A150F250A128A116D300A128A151A
:1000E8000F250A128A1169300A128A150F250A1279
:1000F8008A1120300A128A150F250A128A112A300D
:100108000A128A150F250A128A110D300A128A1549
:100118000F250A128A110A300A128A150F250A12A7
:100128008A110A128A154F250A128A11831203139B
:10013800CF000A128A154F250A128A118312031357
:10014800CE000A128A154F250A128A118312031348
:10015800CD000A128A154F250A128A118312031339
:10016800CC000A128A154F250A128A11831203132A
:10017800CB00D3280A128A1573270A128A11831210
:1001880003134A08013E84000A128A150A200A123B
:100198008A112A3A031DD128D228D328D82836080C
:1001A8000319D728D828BE28D30101300A128A1586
:1001B8003A250A128A116E3083120313D500803053
:1001C800D6000A128A157D250A128A11F3280A1206
:1001D8008A154F250A128A1183120313CF00303073
:1001E800831203134F060319FA28FB2831293130EB
:1001F8004F06031900290129312932304F06031906
:1002080006290729312933304F0603190C290D29EE
:10021800312934304F060319122913293129353071
:100228004F06031918291929312936304F060319A1
:100238001E291F29312937304F060319242925295A
:10024800312938304F0603192A292B293129393009
:100258004F06031D30293129EB28D30101300A123A
:100268008A153A250A128A11583083120313D500C9
:100278008030D6000A128A157D250A128A114C2967
:100288000A128A154F250A128A1183120313CE0007
:100298003030831203134E060319532954298A292F
:1002A80031304E06031959295A298A2932304E0607
:1002B80003195F2960298A2933304E0603196529F5
:1002C80066298A2934304E0603196B296C298A2934
:1002D80035304E060319712972298A2936304E069F
:1002E8000319772978298A2937304E0603197D2979
:1002F8007E298A2938304E060319832984298A29B8
:1003080039304E06031D89298A294429D301013031
:100318000A128A153A250A128A114C3083120313DD
:10032800D5008030D6000A128A157D250A128A1156
:10033800A5290A128A154F250A128A118312031356
:10034800CD003030831203134D060319AC29AD29B3
:10035800E32931304D060319B229B329E329323094
:100368004D060319B829B929E32933304D06031975
:10037800BE29BF29E32934304D060319C429C529EC
:10038800E32935304D060319CA29CB29E32936302C
:100398004D060319D029D129E32937304D06031911
:1003A800D629D729E32938304D060319DC29DD2958
:1003B800E32939304D06031DE229E3299D29D3019C
:1003C80001300A128A153A250A128A113F3083121F
:1003D8000313D5008030D6000A128A157D250A122B
:1003E8008A11FE290A128A154F250A128A118312C8
:1003F8000313CC003030831203134C060319052A6B
:10040800062A3C2A31304C0603190B2A0C2A3C2AAE
:1004180032304C060319112A122A3C2A33304C0672
:100428000319172A182A3C2A34304C0603191D2AA6
:100438001E2A3C2A35304C060319232A242A3C2A32
:1004480036304C060319292A2A2A3C2A37304C060A
:1004580003192F2A302A3C2A38304C060319352A2A
:10046800362A3C2A39304C06031D3B2A3C2AF629F9
:10047800D30101300A128A153A250A128A1123304B
:1004880083120313D5008030D6000A128A157D2501
:100498000A128A11572A0A128A154F250A128A1136
:1004A80083120313CB003030831203134B06031956
:1004B8005E2A5F2A952A31304B060319642A652A79
:1004C800952A32304B0603196A2A6B2A952A33304B
:1004D8004B060319702A712A952A34304B060319E2
:1004E800762A772A952A35304B0603197C2A7D2AE5
:1004F800952A36304B060319822A832A952A3730E3
:100508004B060319882A892A952A38304B0603197D
:100518008E2A8F2A952A39304B06031D942A952A4C
:100528004F2A01300A128A150F250A128A118312DE
:100538000313C401C40A01300A128A150F250A12CE
:100548008A11831203134F080A128A150F250A12FB
:100558008A11831203134E080A128A150F250A12EC
:100568008A11831203134D080A128A150F250A12DD
:100578008A11831203134C080A128A150F250A12CE
:100588008A11831203134B080A128A150F250A12BF
:100598008A110D300A128A150F250A128A110A309B
:1005A8000A128A150F250A128A1183120313D3011E
:1005B80001300A128A153A250A128A118312031386
:1005C800D301D30A4F080A128A153A250A128A114A
:1005D80083120313D301D30A4E080A128A153A2547
:1005E8000A128A1183120313D301D30A4D080A127F
:1005F8008A153A250A128A1183120313D301D30AE2
:100608004C080A128A153A250A128A118312031312
:10061800D301D30A4B080A128A153A250A128A11FD
:1006280083120313CA010A128A1502250A128A11B3
:10063800013083120313C0000030C1000A128A116E
:1006480030230A128A110A128A114A250A128A11BB
:1006580046280A128A11102883160313A3013C3076
:10066800F9001C2D053083160313230603193D2BAF
:100678003E2BA72C831203134A080319442B452B3E
:10068800782B831603132308031D4B2B4C2B782B35
:1006980083120313D30101300A128A153A250A126C
:1006A8008A1183120313D301D30A4A08013E840036
:1006B8000A128A150A200A128A110A128A153A257C
:1006C8000A128A11831203134A08013E84000A128F
:1006D8008A150A200A128A11CF00CA01013083162E
:1006E8000313A0002008A30783124A0803197D2BCF
:1006F8007E2BB42B831603132303031D842B852B16
:10070800B42B83120313D301831603132308803EEB
:100718000A128A153A250A128A1183120313D30181
:10072800D30A4A08013E84000A128A150A200A12CE
:100738008A110A128A153A250A128A11831203139A
:100748004A08013E84000A128A150A200A128A11F0
:10075800CE00CA01013083160313A0002008A307A6
:1007680083124A080319B92BBA2BF12B02308316CE
:1007780003132306031DC12BC22BF12B8312031372
:10078800D301831603132308803E0A128A153A25DB
:100798000A128A1183120313D301D30A4A08013EAD
:1007A80084000A128A150A200A128A110A128A1566
:1007B8003A250A128A11831203134A08013E84005B
:1007C8000A128A150A200A128A11CD00CA010130BC
:1007D80083160313A0002008A30783124A080319ED
:1007E800F62BF72B2E2C0330831603132306031D39
:1007F800FE2BFF2B2E2C83120313D3018316031316
:100808002308803E0A128A153A250A128A11831291
:100818000313D301D30A4A08013E84000A128A1539
:100828000A200A128A110A128A153A250A128A110E
:10083800831203134A08013E84000A128A150A200B
:100848000A128A11CC00CA01013083160313A000D2
:100858002008A30783124A080319332C342C6B2C65
:100868000430831603132306031D3B2C3C2C6B2CEE
:1008780083120313D301831603132308803E0A123D
:100888008A153A250A128A1183120313D301D30A4F
:100898004A08013E84000A128A150A200A128A119F
:1008A8000A128A153A250A128A11831203134A0872
:1008B800013E84000A128A150A200A128A11CB0006
:1008C800CA01013083160313A0002008A307790882
:1008D80083160313A000A101200883120313E60066
:1008E80083160313210883120313E7005030E8002E
:1008F8000A128A15F7260A128A1183120313D301E2
:10090800C0300A128A153A250A128A115030831209
:100918000313D5000030D6000A128A157D250A1265
:100928008A110130F902033083160313A20008303C
:10093800A1007630A000A00B9F2CA10B9F2CA20B2E
:100948009F2C00001C2D0A128A11F9270A128A11FD
:1009580001300A128A150F250A128A1102300A126A
:100968008A150F250A128A11831203134F080A12D7
:100978008A150F250A128A11831203134E080A12C8
:100988008A150F250A128A11831203134D080A12B9
:100998008A150F250A128A11831203134C080A12AA
:1009A8008A150F250A128A11831203134B080A129B
:1009B8008A150F250A128A110D300A128A150F2579
:1009C8000A128A110A300A128A150F250A128A1188
:1009D8000A128A1502250A128A1183120313D301F7
:1009E80001300A128A153A250A128A1180308312B8
:1009F8000313D5008030D6000A128A157D250A1205
:100A08008A11831203138C123C30F90003308316C9
:100A18000313A2008A30A1005530A000A00B122DAC
:100A2800A10B122DA20B122D831203131A08492DA4
:100A38007908031D202D212D362B83120313D30192
:100A480001300A128A153A250A128A1114308312C3
:100A58000313D5008030D6000A128A157D250A12A4
:100A68008A11831203138C123C30F9000630831666
:100A78000313A2001330A100AD30A000A00B422D3B
:100A8800A10B422DA20B422D182D0800CC2E83124B
:100A980003138C1A502D512DC62ED30101300A1282
:100AA8008A153A250A128A116E3083120313D5006B
:100AB8008030D6000A128A157D250A128A11790813
:100AC80083160313A000A101200883120313E60074
:100AD80083160313210883120313E7005030E8003C
:100AE8000A128A15F7260A128A1183120313D301F0
:100AF800C0300A128A153A250A128A115030831218
:100B08000313D5000030D6000A128A157D250A1273
:100B18008A110130F902023083160313A2008630CD
:100B2800A1009830A000A00B972DA10B972DA20B28
:100B3800972D0000CC2E790883160313A000A1017D
:100B4800200883120313E600831603132108831277
:100B58000313E7005030E8000A128A15F7260A1234
:100B68008A1183120313D301C0300A128A153A2559
:100B78000A128A11503083120313D5000030D600B0
:100B88000A128A157D250A128A110130F9020230EB
:100B980083160313A2008630A1009830A000A00B92
:100BA800D32DA10BD32DA20BD32D00008312031339
:100BB8001A03031DE02DE12DC22ED30101300A12C4
:100BC8008A153A250A128A1183120313D301D30A0C
:100BD8001A080A128A153A250A128A11831203136F
:100BE8008C121A08BD2E831203138C1AFC2DFD2DAE
:100BF800B82E790883160313A000A10120088312D8
:100C08000313E60083160313210883120313E70076
:100C18005030E8000A128A15F7260A128A11831240
:100C28000313D301C0300A128A153A250A128A1111
:100C3800503083120313D5000030D6000A128A15EB
:100C48007D250A128A110130F90202308316031336
:100C5800A2008630A1009830A000A00B312EA10B75
:100C6800312EA20B312E0000BD2E790883160313F6
:100C7800A000A101200883120313E60083160313C2
:100C8800210883120313E7005030E8000A128A157E
:100C9800F7260A128A1183120313D301C0300A12ED
:100CA8008A153A250A128A11503083120313D50087
:100CB8000030D6000A128A157D250A128A110130E1
:100CC800F902023083160313A2008630A10098307F
:100CD800A000A00B6D2EA10B6D2EA20B6D2E000097
:100CE800831203131A03031D7A2E7B2EB62ED3010B
:100CF80081300A128A153A250A128A1183120313BF
:100D0800D301D30A1A080A128A153A250A128A1137
:100D1800831203138C121A083C30F900D301C03037
:100D28000A128A153A250A128A11633083120313AC
:100D3800D5008030D6000A128A157D250A128A113C
:100D4800063083160313A2001330A100AD30A000B3
:100D5800A00BAC2EA10BAC2EA20BAC2E831203134E
:100D68001A08EB2E8C121A087908031DBC2EBD2E0A
:100D7800392E7908031DC12EC22EF72D83120313B5
:100D88008C121A087908031DCA2ECB2E9F2D4A2DC6
:100D98007908031DD02ED12E4B2D83120313D301B6
:100DA80001300A128A153A250A128A113130831243
:100DB8000313D5008030D6000A128A157D250A1241
:100DC8008A11831203138C123C30F900A42E0800F8
:100DD8000B1DEF2EF02EEC2E0B110B1DF42EF52E05
:100DE800F12E0B110B1DF92EFA2EF62E0B110B1DE1
:100DF800FE2EFF2EFB2E0B110B1D032F042F002F91
:100E08000B110B1D082F092F052F0B110B1D0D2F73
:100E18000E2F0A2F0B110B1D122F132F0F2F0B1133
:100E28000B1D172F182F142F0B110B1D1C2F1D2FE7
:100E3800192F0B110B1D212F222F1E2F0B110B1DEC
:100E4800262F272F232F0B110B1D2B2F2C2F282F4D
:100E58000B110B1D302F312F2D2F0B110B1D352F83
:100E6800362F322F0B118312031340034104031D45
:100E78003E2F3F2FC22F0F30F00070088316031348
:100E88008804F70103307702031C4B2F4C2F4D2F9A
:100E9800BF2F83120608073886007708113E8400A2
:100EA8000A128A150A200A128A11F00070088605AB
:100EB800F60104307602031C622F632F642FBA2FC9
:100EC80076080D3E84000A128A150A200A128A1131
:100ED8000805031D702F712F7A2F781C742F752F1A
:100EE8007A2F78100130F0007008F50776080D3E6B
:100EF80084000A128A150A200A128A1108050319A1
:100F0800862F872F9D2F78188A2F8B2F9D2F760855
:100F18000D3E84000A128A150A200A128A11080551
:100F28000319972F982F9D2F78189B2F9C2F9D2F53
:100F38007814750848060319A22FA32FB02F770835
:100F4800F00002300310F00DFF3E031DA62F7608B7
:100F58007007CA007508C8000130F0007008F6076D
:100F680004307602031CB92FBA2F642F0130F00029
:100F78007008F707462F8316031308087408FF0044
:100F880073088A0072088400710E8300FE0E7E0EBC
:100F9800090083120313D900DC01DC0ADA01DB0142
:100FA800E82F831203135908D3005C080A128A1524
:100FB80066250A128A1183120313DC000130DA074E
:100FC8000318DB0A0030DB075B08803AD800803062
:100FD8005802031DF12F57085A02031CF42FF52F4E
:100FE800D52F831203135C08080083120313071418
:100FF800871008003C340134FF1B0A2883137F182C
:1010080083170008840A0319FF0A080008308A00B9
:101018000408840A820700342334373434343134E2
:101028002A3438343534323430343934363433347D
:101038000134023404340834FE34FD34FB344334C0
:101048006F3464346934633465342034533463341E
:1010580061346434753474346F3400344134743416
:10106800743465346E3464346534723465342E34C3
:101078002E342E342E340034543465346D347034A8
:101088006F342034533463346134643475347434C5
:101098006F34003441347434743465346E346434D9
:1010A8006534723465342E342E342E340034413491
:1010B8007434743465346E3464346534723465342D
:1010C8002E342E34003441347434743465346E3420
:1010D80064346534723465342E3400344134503409
:1010E80052344934203450344F3452345434413417
:1010F800003441347434743465346E346434653483
:101108007234653400345034723465346D34693463
:1011180020342A3400344D3461346E3464346134FC
:0611280074346F34003442
:101A04008312031307108714080064008001840AFA
:101A14000406031900340406082D83120313D300AB
:101A24000C1E152D162D122D53089900080083162F
:101A340003138112811101158114011406308312DC
:101A4400031381000B118B168B17080083160313E5
:101A540007138717181533309900181283120313CC
:101A64009817831603139816831203131816080085
:101A740083120313D40083160313880189100911F8
:101A840083120313891454088800530C031C09118E
:101A94000318091589108914080083120313D4014B
:101AA400D5015A2D0130D4070318D50A0030D507C3
:101AB400BA3054065504031D602D612D542D0108C0
:101AC400D3000B115308080083120313D600D50169
:101AD400561C6D2D6E2D722D5308D4005408D50755
:101AE4000310D30D0310D60C5608031D7A2D7B2D3D
:101AF4006A2D5508080083120313DA01DB01A82DAF
:101B0400D301D30A5A085507D8005608D70003183A
:101B1400D70ADA1F8E2DD703831203135708D9006F
:101B24005908FF00580884000A128A1500200A1276
:101B34008A150A128A153A250A128A150130831267
:101B44000313DA070318DB0A0030DB075A085507CA
:101B5400D8005608D7000318D70ADA1FB22DD703C6
:101B6400831203135708D9005908FF00580884004A
:101B74000A128A1500200A128A15003A031DC32D81
:101B8400C42D822D080083120313D901D61FCB2D37
:101B9400CC2DD32DD509D609D50A0319D60AD901D6
:101BA400D90AD41FD62DD72DDC2DD309D409D30AB5
:101BB4000319D40A530854040319E12DE22D112EFC
:101BC400D801D80AF02D01300310D30DD40DFF3EF7
:101BD400031DE62D0130D7005708D807D41FF32D75
:101BE400F42DE52D54085602031DFA2D5308550211
:101BF400031CFD2DFE2D042E5308D5025408031C8E
:101C0400D603D60201300310D40CD30CFF3E031DBF
:101C1400052E0130D802031D102E112EF42D590863
:101C24000319152E162E1B2ED509D609D50A03190C
:101C3400D60A5608D4005508D300080083120313AB
:101C4400E301DE1F262E272E2E2EDD09DE09DD0AF6
:101C54000319DE0AE301E30AE01F312E322E3B2E84
:101C6400DF09E009DF0A0319E00A0130E100610835
:101C7400E306E401E5015D085E040319422E432EE8
:101C84007A2EE201E20A512E01300310DD0DDE0D41
:101C9400FF3E031D472E0130E1006108E207DE1F0D
:101CA400542E552E462E01300310E40DE50DFF3E53
:101CB400031D562E5E086002031D622E5D085F023E
:101CC400031C652E662E6D2E5D08DF025E08031C64
:101CD400E003E002641401300310DE0CDD0CFF3E6F
:101CE400031D6E2E0130E202031D792E7A2E552E2D
:101CF400630803197E2E7F2E842EE409E509E40A85
:101D04000319E50A6508DE006408DD000800831293
:101D1400031309118910823083120313D600DD30B6
:101D2400D500D50B932ED60B932E8312031389144F
:101D3400D30138300A128A153A250A128A1521303D
:101D440083120313D6007530D500D50BA72ED60BFE
:101D5400A72EAC2E83120313D30138300A128A152E
:101D64003A250A128A15073083120313D6007C30F1
:101D7400D500D50BBB2ED60BBB2E0000831203134C
:101D8400D30138300A128A153A250A128A158312A9
:101D94000313D30108300A128A153A250A128A1548
:101DA40083120313D3010F300A128A153A250A123B
:101DB4008A1583120313D30101300A128A153A25B6
:101DC4000A128A1583120313D3010C300A128A15DE
:101DD4003A250A128A1583120313D30180300A129A
:101DE4008A153A250A128A15080083120313ED0195
:101DF400ED0A002F0130E9006908ED076D08D700EE
:101E04000A300A128A11CD270A128A158312031383
:101E1400E900EA016908DD006A08DE006708E000FD
:101E24006608DF000A128A1520260A128A15831210
:101E340003135D085E04031D202F212FFC2EEE01E9
:101E4400652F6E086D02FF3ED7000A300A128A1110
:101E5400CD270A128A1583120313EC006E08680753
:101E6400E900690884006C08EA00EB016A08DD00F7
:101E74006B08DE006708E0006608DF000A128A15B6
:101E840020260A128A15831203135D08303E831339
:101E940080006C08E900EA016908D3006A08D400EC
:101EA4006708D6006608D5000A128A15C5250A12E5
:101EB4008A15831203135408E7005308E60001301F
:101EC400E9006908EE076D086E02031C6A2F6B2F88
:101ED400232F6E086807E9006908840083138001D2
:101EE40008000F3083120313D3005308831603131F
:101EF4008804F70103307702031C812F822F832F7C
:101F04007B2F831203130608073886007708113ED7
:101F140084000A128A150A200A128A15D30053086B
:101F24008605F60104307602031C992F9A2F9B2F05
:101F3400FA2F76080D3E84000A128A150A200A1226
:101F44008A150805031DA72FA82FB12F781CAB2FC6
:101F5400AC2FB12F78100130D3005308F507760861
:101F64000D3E84000A128A150A200A128A150805F1
:101F74000319BD2FBE2FE12F7818C12FC22FE12FD7
:101F8400413083120313D400ED30D300D30BC82F98
:101F9400D40BC82FCD2F76080D3E84000A128A1563
:101FA4000A200A128A158312031308050319DB2F6A
:101FB400DC2FE12F7818DF2FE02FE12F781475083C
:101FC40048060319E62FE72FF52F7708D3000230D0
:101FD4000310D30DFF3E031DEA2F76085307CA00F2
:101FE4007508C800FF2F0130D3005308F607942F5B
:0C1FF4000130D3005308F7077C2F0800D1
:08400000FF3FFF3FFF3FFF3FC0
:02400E003A3F37
:00000001FF
