:060000000A128A1110280B
:10000800FE00030EF1000408F2000A08F3007F085E
:10001800F4000A128A11482C0A128A1113280A12AB
:100028008A151E270A128A11E6000A128A151F2746
:100038000A128A11E7008313A0308400B0300A1234
:100048008A1525270A128A112030840047300A129F
:100058008A1525270A128A11F501F601F701F80118
:10006800F90183010A128A113928831603138501BD
:1000780086018701880189010A128A1537270A1221
:100088008A110A128A11C1260A128A110A128A11C1
:10009800F1270A128A110A128A155E270A128A1192
:1000A800F8000A128A155E270A128A11F7000A1246
:1000B8008A155E270A128A11F6000A128A155E2727
:1000C8000A128A1183120313C3000A128A155E27C3
:1000D8000A128A1183120313C20085280A128A1190
:1000E800B9250A128A117508013E84000A128A117C
:1000F80034250A128A112A3A031D83288428852860
:100108008C2883120313260803198B288C2872283D
:1001180083120313C70101300A128A1549270A12EC
:100128008A116E3083120313C9008030CA000A1284
:100138008A15B8270A128A11A7280A128A155E2773
:100148000A128A11F800303078060319AC28AD2855
:10015800E328313078060319B228B328E32832306F
:1001680078060319B828B928E32833307806031924
:10017800BE28BF28E328343078060319C428C528C8
:10018800E328353078060319CA28CB28E328363007
:1001980078060319D028D128E328373078060319C0
:1001A800D628D728E328383078060319DC28DD2834
:1001B800E32839307806031DE228E328A1288312B2
:1001C8000313C70101300A128A1549270A128A1136
:1001D800583083120313C9008030CA000A128A15E6
:1001E800B8270A128A11FE280A128A155E270A12EF
:1001F8008A11F700303077060319032904293A29B0
:1002080031307706031909290A293A293230770645
:1002180003190F2910293A293330770603191529AC
:1002280016293A293430770603191B291C293A293B
:10023800353077060319212922293A2936307706DD
:100248000319272928293A293730770603192D2930
:100258002E293A29383077060319332934293A29BF
:1002680039307706031D39293A29F82883120313F0
:10027800C70101300A128A1549270A128A114C301F
:1002880083120313C9008030CA000A128A15B827DE
:100298000A128A1155290A128A155E270A128A112A
:1002A800F6003030760603195A295B299129313036
:1002B80076060319602961299129323076060319D7
:1002C8006629672991293330760603196C296D2927
:1002D800912934307606031972297329912935300A
:1002E8007606031978297929912936307606031973
:1002F8007E297F2991293730760603198429852993
:1003080091293830760603198A298B2991293930A1
:100318007606031D902991294F2983120313C701DB
:1003280001300A128A1549270A128A113F308312AE
:100338000313C9008030CA000A128A15B8270A12A6
:100348008A11AE290A128A155E270A128A118312A7
:100358000313C30030308312031343060319B5296E
:10036800B629EC29313043060319BB29BC29EC29ED
:10037800323043060319C129C229EC293330430618
:100388000319C729C829EC29343043060319CD2994
:10039800CE29EC29353043060319D329D429EC2971
:1003A800363043060319D929DA29EC2937304306B0
:1003B8000319DF29E029EC29383043060319E52918
:1003C800E629EC2939304306031DEB29EC29A62937
:1003D800C70101300A128A1549270A128A112330E7
:1003E80083120313C9008030CA000A128A15B8277D
:1003F8000A128A11072A0A128A155E270A128A1116
:1004080083120313C2003030831203134206031908
:100418000E2A0F2A452A313042060319142A152AB2
:10042800452A3230420603191A2A1B2A452A333034
:1004380042060319202A212A452A34304206031984
:10044800262A272A452A3530420603192C2A2D2A1E
:10045800452A363042060319322A332A452A3730CC
:1004680042060319382A392A452A38304206031920
:100478003E2A3F2A452A39304206031D442A452A86
:10048800FF2930300A128A152D270A128A11831281
:100498000313B401B40A01300A128A152D270A126F
:1004A8008A1178080A128A152D270A128A117708E4
:1004B8000A128A152D270A128A1176080A128A1535
:1004C8002D270A128A118312031343080A128A1568
:1004D8002D270A128A118312031342080A128A1559
:1004E8002D270A128A112A300A128A152D270A1274
:1004F8008A1183120313C70101300A128A1549278A
:100508000A128A1183120313C701C70A78080A124C
:100518008A1549270A128A1183120313C701C70AC9
:1005280077080A128A1549270A128A1183120313B7
:10053800C701C70A76080A128A1549270A128A11BA
:1005480083120313C701C70A43080A128A154927E9
:100558000A128A1183120313C701C70A42080A1232
:100568008A1549270A128A11F5010A128A152027C5
:100578000A128A11013083120313B0000030B1004F
:100588000A128A11CD220A128A114F280A128A11D8
:100598001028282C8C1AD12AD22A222CC7010130E3
:1005A8000A128A1549270A128A116E308312031318
:1005B800C9008030CA000A128A15B8270A128A119F
:1005C800831203136708E300E4016308DA00640890
:1005D800DB004430DC000A128A1145260A128A110F
:1005E80083120313C701C0300A128A1549270A1259
:1005F8008A11443083120313C9000030CA000A125A
:100608008A15B8270A128A11013083120313E702E8
:100618009C3083120313E400D630E300E30B122B63
:10062800E40B122B0000282C6708E300E4016308A0
:10063800DA006408DB004430DC000A128A1145261F
:100648000A128A1183120313C701C0300A128A15CD
:1006580049270A128A11443083120313C900003053
:10066800CA000A128A15B8270A128A1101308312A1
:100678000313E7029C3083120313E400D630E3002F
:10068800E30B442BE40B442B00003030831203139C
:100698001A06031D502B512B202CC70101300A12BA
:1006A8008A1549270A128A1183120313C701C70A38
:1006B8001A080A128A1549270A128A118312031383
:1006C8008C121A08192C8C1A6A2B6B2B142C67089D
:1006D800E300E4016308DA006408DB004430DC006E
:1006E8000A128A1145260A128A1183120313C701B6
:1006F800C0300A128A1549270A128A114430831217
:100708000313C9000030CA000A128A15B8270A1252
:100718008A11013083120313E7029C3083120313FA
:10072800E400D630E300E30B972BE40B972B000093
:10073800192C6708E300E4016308DA006408DB00A9
:100748004430DC000A128A1145260A128A118312E3
:100758000313C701C0300A128A1549270A128A11E1
:10076800443083120313C9000030CA000A128A15E4
:10077800B8270A128A11013083120313E7029C304A
:1007880083120313E400D630E300E30BC92BE40B18
:10079800C92B00003130831203131A06031DD52B11
:1007A800D62B122CC70181300A128A1549270A1242
:1007B8008A1183120313C701C70A1A080A128A1575
:1007C80049270A128A11831203138C121A083C3023
:1007D800E700C701C0300A128A1549270A128A1190
:1007E800633083120313C9008030CA000A128A15C5
:1007F800B8270A128A11033083120313E500083060
:10080800E4007630E300E30B072CE40B072CE50B40
:10081800072C0000831203131A08472C8C121A089D
:100828006708031D182C192C9D2B831203136708C6
:10083800031D1F2C202C672B8C121A086708031D18
:10084800262C272C182BCD2A831203136708031D87
:100858002E2C2F2CCE2AC70101300A128A154927BF
:100868000A128A11313083120313C9008030CA007A
:100878000A128A15B8270A128A11831203138C12D6
:100888003C30E700FF2B08000B1D4B2C4C2C482C50
:100898000B110B1D502C512C4D2C0B110B1D552CD5
:1008A800562C522C0B110B1D5A2C5B2C572C0B1150
:1008B8000B1D5F2C602C5C2C0B110B1D642C652C04
:1008C800612C0B110B1D692C6A2C662C0B110B1D4E
:1008D8006E2C6F2C6B2C0B110B1D732C742C702C25
:1008E8000B110B1D782C792C752C0B110B1D7D2CE5
:1008F8007E2C7A2C0B110B1D822C832C7F2C0B1138
:100908000B1D872C882C842C0B110B1D8C2C8D2CEB
:10091800892C0B110B1D912C922C8E2C0B118312F0
:10092800031330033104031D9A2C9B2C1F2D0F3009
:10093800F000700883160313880483120313BB01A5
:1009480003303B02031CA92CAA2CAB2C1C2D060837
:10095800073886003B08113E84000A128A113425A4
:100968000A128A11F00070088605BA0104303A02AA
:10097800031CBF2CC02CC12C172D3A080D3E840037
:100988000A128A1134250A128A110805031DCD2C72
:10099800CE2CD72C791CD12CD22CD72C7910013005
:1009A800F0007008B9073A080D3E84000A128A114F
:1009B80034250A128A1108050319E32CE42CFA2CB1
:1009C8007918E72CE82CFA2C3A080D3E84000A1214
:1009D8008A1134250A128A1108050319F42CF52CFA
:1009E800FA2C7918F82CF92CFA2C791439083806CD
:1009F8000319FF2C002D0D2D3B08F00002300310C9
:100A0800F00DFF3E031D032D3A087007F500390865
:100A1800B8000130F0007008BA0704303A02031C2D
:100A2800162D172DC12C0130F0007008BB07A42C1F
:100A38008316031308087408FF0073088A007208F5
:100A48008400710E8300FE0E7E0E0900FF1B342DFC
:100A580083137F1883170008840A0319FF0A080004
:100A680005308A000408840A8207003423343734A6
:100A7800343431342A343834353432343034393437
:100A8800363433340134023404340834FE34FD344B
:100A9800FB3443346F34643469346334653420344C
:100AA8005334633461346434753474346F340034CB
:100AB80041347434743465346E3464346534723457
:100AC80065342E342E342E342E34003454346534A8
:100AD8006D3470346F342034533463346134643487
:100AE800753474346F340034413474347434653478
:100AF8006E3464346534723465342E342E342E34B6
:100B0800003441347434743465346E346434653478
:100B1800723465342E342E340034413474347434D1
:100B280065346E3464346534723465342E3400347C
:100B38004134503452344934203450344F345234D0
:100B480054344134003441347434743465346E346C
:100B5800643465347234653400344D3461346E3431
:100B68006434613474346F3400340F3083120313E7
:100B7800C70047088316031388048312BB01033098
:100B88003B02031CC82DC92DCA2DC12D06080738E4
:100B980086003B08113E84000A128A1134250A1285
:100BA8008A11C70047088605BA0104303A02031CB7
:100BB800DE2DDF2DE02D3F2E3A080D3E84000A126F
:100BC8008A1134250A128A110805031DEC2DED2D12
:100BD800F62D791CF02DF12DF62D79100130C70076
:100BE8004708B9073A080D3E84000A128A113425CD
:100BF8000A128A1108050319022E032E262E7918C7
:100C0800062E072E262E1A3083120313C800F7303B
:100C1800C700C70B0D2EC80B0D2E122E83120313FF
:100C28003A080D3E84000A128A1134250A128A11E4
:100C380008050319202E212E262E7918242E252E5C
:100C4800262E79143908380603192B2E2C2E3A2E05
:100C58003B08C70002300310C70DFF3E031D2F2EAF
:100C68003A084707F5003908B800442E0130C70094
:100C78004708BA07D92D0130C7004708BB07C32D5D
:100C8800080083120313E101E10A4E2E0130DD0052
:100C98005D08E1076108CB000A300A128A158C2723
:100CA8000A128A1183120313DD00DE015D08D100E8
:100CB8005E08D2005B08D4005A08D3000A128A11D1
:100CC8002D270A128A118312031351085204031D97
:100CD8006E2E6F2E4A2EE201B32E62086102FF3E8D
:100CE800CB000A300A128A158C270A128A1183123D
:100CF8000313E00062085C07DD005D0884006008FB
:100D0800DE00DF015E08D1005F08D2005B08D40076
:100D18005A08D3000A128A112D270A128A1183123F
:100D280003135108303E831380006008DD00DE01A4
:100D38005D08C7005E08C8005B08CA005A08C900F9
:100D48000A128A1196270A128A1183120313480875
:100D5800DB004708DA000130DD005D08E2076108C2
:100D68006202031CB82EB92E712E62085C07DD00E2
:100D78005D0884008313800108008312031309119E
:100D88008910343083120313CA00F130C900C90B2B
:100D9800CB2ECA0BCB2E831203138914C70138300C
:100DA8000A128A1549270A128A110D308312031371
:100DB800CA00FB30C900C90BDF2ECA0BDF2E831215
:100DC8000313C70138300A128A1549270A128A11F3
:100DD800033083120313CA009730C900C90BF22EDF
:100DE800CA0BF22E83120313C70138300A128A1570
:100DF80049270A128A1183120313C70108300A12FD
:100E08008A1549270A128A1183120313C7010F3062
:100E18000A128A1549270A128A1183120313C70175
:100E280001300A128A1549270A128A1183120313FC
:100E3800C7010C300A128A1549270A128A1183122F
:100E48000313C70180300A128A1549270A128A112A
:100E5800080083120313D701D21F332F342F3B2FDF
:100E6800D109D209D10A0319D20AD701D70AD41F46
:100E78003E2F3F2F482FD309D409D30A0319D40A88
:100E88000130D5005508D706D801D90151085204B8
:100E980003194F2F502F872FD601D60A5E2F013006
:100EA8000310D10DD20DFF3E031D542F0130D50084
:100EB8005508D607D21F612F622F532F0130031018
:100EC800D80DD90DFF3E031D632F52085402031D90
:100ED8006F2F51085302031C722F732F7A2F51085A
:100EE800D3025208031CD403D4025814013003104F
:100EF800D20CD10CFF3E031D7B2F0130D602031DFF
:100F0800862F872F622F570803198B2F8C2F912F2D
:100F1800D809D909D80A0319D90A5908D200580892
:100F2800D100080083120313CD01CA1F9C2F9D2FE7
:100F3800A42FC909CA09C90A0319CA0ACD01CD0AC9
:100F4800C81FA72FA82FAD2FC709C809C70A03199B
:100F5800C80A470848040319B22FB32FE22FCC015F
:100F6800CC0AC12F01300310C70DC80DFF3E031D69
:100F7800B72F0130CB004B08CC07C81FC42FC52F93
:100F8800B62F48084A02031DCB2F47084902031C05
:100F9800CE2FCF2FD52F4708C9024808031CCA03F4
:100FA800CA0201300310C80CC70CFF3E031DD62F20
:100FB8000130CC02031DE12FE22FC52F4D08031984
:100FC800E62FE72FEC2FC909CA09C90A0319CA0A6B
:100FD8004A08C8004908C70008008316031381128D
:100FE8008111011581140114063083120313810045
:080FF8000B118B168B1708008A
:101E3C0030343C34831203130710871408006400F9
:101E4C008001840A0406031900340406262F831229
:101E5C000313C7000C1E332F342F302F4708990063
:101E6C0008008316031307138717181533309900CE
:101E7C0018128312031398178316031398168312E0
:101E8C0003131816080083120313C80083160313D8
:101E9C0088018910091183120313891448088800DA
:101EAC00470C031C09110318091589108914080023
:101EBC0083120313C801C901692F0130C807031825
:101ECC00C90A0030C907BA3048064904031D6F2FF0
:101EDC00702F632F0108C7000B11470808008312ED
:101EEC000313CA00C9014A1C7C2F7D2F812F470880
:101EFC00C8004808C9070310C70D0310CA0C4A08CC
:101F0C00031D892F8A2F792F490808008312031388
:101F1C00CD00D001D00ACE01CF01A72F831203131D
:101F2C004D08C70050080A128A1575270A128A151F
:101F3C0083120313D0000130CE070318CF0A0030F0
:101F4C00CF074F08803ACC0080304C02031DB02FD5
:101F5C004B084E02031CB32FB42F942F8312031380
:101F6C005008080083120313CE01CF01E32FC701E1
:101F7C00C70A4E084907CC004A08CB000318CB0A05
:101F8C00CE1FC92FCB03831203134B08CD004D0872
:101F9C00FF004C0884000A128A112A250A128A159D
:101FAC000A128A1549270A128A1501308312031363
:101FBC00CE070318CF0A0030CF074E084907CC00D4
:101FCC004A08CB000318CB0ACE1FED2FCB0383128C
:101FDC0003134B08CD004D08FF004C0884000A1277
:101FEC008A112A250A128A15003A031DFE2FFF2F8B
:041FFC00BD2F0800ED
:08400000FF3FFF3FFF3FFF3FC0
:02400E003A3F37
:00000001FF
