:100000000A128A1110283C34FE00030EF100040885
:10001000F2000A08F3007F08F4000A128A151F2F65
:100020000A128A1113280A128A150D240A128A113B
:10003000E3000A128A150E240A128A11E4000A1239
:100040008A1103200A128A11F9008313A030840058
:10005000B0300A128A11F8270A128A11203084005F
:1000600043300A128A11F8270A128A11F501F601A3
:10007000F701F80183010A128A113E28831603133F
:10008000850186018701880189010A128A153224B7
:100090000A128A110A128A15A8250A128A110A124E
:1000A0008A1523240A128A1183120313C301013013
:1000B0000A128A1544240A128A116D30831203131E
:1000C000C5008030C6000A128A159C240A128A11C3
:1000D0000A128A1514240A128A1150300A128A153B
:1000E00019240A128A1172300A128A1519240A1266
:1000F0008A1165300A128A1519240A128A116D3084
:100100000A128A1519240A128A1169300A128A15EC
:1001100019240A128A1120300A128A1519240A1287
:100120008A112A300A128A1519240A128A110D30EE
:100130000A128A1519240A128A110A300A128A151B
:1001400019240A128A110A128A1559240A128A11CC
:1001500083120313BF000A128A1559240A128A1146
:1001600083120313BE000A128A1559240A128A1137
:1001700083120313BD000A128A1559240A128A1128
:1001800083120313BC000A128A1559240A128A1119
:1001900083120313BB00E1280A128A1592260A1261
:1001A0008A11831203133A08013E84000A128A114D
:1001B00059270A128A112A3A031DDF28E028E1286C
:1001C000E62826080319E528E628CC28C3010130D3
:1001D0000A128A1544240A128A1163308312031307
:1001E000C5008030C6000A128A159C240A128A11A2
:1001F00001290A128A1559240A128A11831203133B
:10020000BF003030831203133F0603190829092960
:100210003F2931303F0603190E290F293F2932307B
:100220003F060319142915293F2933303F060319C6
:100230001A291B293F2934303F0603192029212977
:100240003F2935303F060319262927293F29363013
:100250003F0603192C292D293F2937303F06031962
:10026000322933293F2938303F06031938293929E3
:100270003F2939303F06031D3E293F29F928C30194
:1002800001300A128A1544240A128A115830831246
:100290000313C5008030C6000A128A159C240A1276
:1002A0008A115A290A128A1559240A128A118312AC
:1002B0000313BE003030831203133E060319612975
:1002C0006229982931303E0603196729682998293F
:1002D00032303E0603196D296E29982933303E06C7
:1002E000031973297429982934303E060319792992
:1002F0007A29982935303E0603197F2980299829C3
:1003000036303E06031985298629982937303E065E
:1003100003198B298C29982938303E060319912915
:100320009229982939303E06031D97299829522988
:10033000C30101300A128A1544240A128A114C3072
:1003400083120313C5008030C6000A128A159C244C
:100350000A128A11B3290A128A1559240A128A111B
:1003600083120313BD003030831203133D060319BB
:10037000BA29BB29F12931303D060319C029C12909
:10038000F12932303D060319C629C729F129333036
:100390003D060319CC29CD29F12934303D06031936
:1003A000D229D329F12935303D060319D829D92975
:1003B000F12936303D060319DE29DF29F1293730CE
:1003C0003D060319E429E529F12938303D060319D2
:1003D000EA29EB29F12939303D06031DF029F129DD
:1003E000AB29C30101300A128A1544240A128A116A
:1003F0003F3083120313C5008030C6000A128A15ED
:100400009C240A128A110C2A0A128A1559240A12EB
:100410008A1183120313BC003030831203133C068D
:100420000319132A142A4A2A31303C060319192ABF
:100430001A2A4A2A32303C0603191F2A202A4A2A3D
:1004400033303C060319252A262A4A2A34303C0632
:1004500003192B2A2C2A4A2A35303C060319312A43
:10046000322A4A2A36303C060319372A382A4A2AC1
:1004700037303C0603193D2A3E2A4A2A38303C06CA
:100480000319432A442A4A2A39303C06031D492AC3
:100490004A2A042AC30101300A128A1544240A1286
:1004A0008A11233083120313C5008030C6000A125C
:1004B0008A159C240A128A11652A0A128A1559245F
:1004C0000A128A1183120313BB0030308312031304
:1004D0003B0603196C2A6D2AA32A31303B06031907
:1004E000722A732AA32A32303B060319782A792A02
:1004F000A32A33303B0603197E2A7F2AA32A3430ED
:100500003B060319842A852AA32A35303B060319A2
:100510008A2A8B2AA32A36303B060319902A912A6D
:10052000A32A37303B060319962A972AA32A383084
:100530003B0603199C2A9D2AA32A39303B06031D3A
:10054000A22AA32A5D2A30300A128A1519240A1217
:100550008A1131300A128A1519240A128A1131308F
:1005600083120313B40031300A128A1519240A12B7
:100570008A11831203133F080A128A1519240A12DA
:100580008A11831203133E080A128A1519240A12CB
:100590008A11831203133D080A128A1519240A12BC
:1005A0008A11831203133C080A128A1519240A12AD
:1005B0008A11831203133B080A128A1519240A129E
:1005C0008A110D300A128A1519240A128A110A306A
:1005D0000A128A1519240A128A1183120313C301FD
:1005E00001300A128A1544240A128A118312031355
:1005F000C301C30A3F080A128A1544240A128A1149
:1006000083120313C301C30A3E080A128A15442445
:100610000A128A1183120313C301C30A3D080A1286
:100620008A1544240A128A1183120313C301C30AD0
:100630003C080A128A1544240A128A1183120313F1
:10064000C301C30A3B080A128A1544240A128A11FC
:1006500083120313BA010A128A150F240A128A118F
:10066000013083120313B0000030B1000A128A1166
:1006700063250A128A110A128A1144230A128A1166
:1006800054280A128A111028432D831203138C1A3E
:100690004A2B4B2B3D2DC30101300A128A154424ED
:1006A0000A128A11633083120313C5008030C6001A
:1006B0000A128A159C240A128A11790883120313DC
:1006C000DF00E0015F08D6006008D7004030D800A6
:1006D0000A128A1516260A128A1183120313C301FD
:1006E000C0300A128A1544240A128A11403083123B
:1006F0000313C5000030C6000A128A159C240A1292
:100700008A110130F902023083120313E1008630AE
:10071000E0009830DF00DF0B8B2BE00B8B2BE10B25
:100720008B2B0000432D7908DF00E0015F08D60025
:100730006008D7004030D8000A128A1516260A121F
:100740008A1183120313C301C0300A128A1544248C
:100750000A128A11403083120313C5000030C6000C
:100760000A128A159C240A128A110130F9020230F9
:1007700083120313E1008630E0009830DF00DF0BC6
:10078000BF2BE00BBF2BE10BBF2B000030308312DF
:1007900003131A06031DCD2BCE2B392DC3010130B7
:1007A0000A128A1544240A128A1183120313C30100
:1007B000C30A1A080A128A1544240A128A118312DB
:1007C00003138C121A08342D831203138C1AE92B8D
:1007D000EA2B2F2D7908DF00E0015F08D6006008C2
:1007E000D7004030D8000A128A1516260A128A113C
:1007F00083120313C301C0300A128A1544240A125B
:100800008A11403083120313C5000030C6000A125B
:100810008A159C240A128A110130F90202308312CF
:100820000313E1008630E0009830DF00DF0B162C68
:10083000E00B162CE10B162C0000342D7908DF009C
:10084000E0015F08D6006008D7004030D8000A12E7
:100850008A1516260A128A1183120313C301C030A7
:100860000A128A1544240A128A1140308312031393
:10087000C5000030C6000A128A159C240A128A118B
:100880000130F902023083120313E1008630E000E8
:100890009830DF00DF0B4A2CE00B4A2CE10B4A2C8E
:1008A00000003130831203131A06031D582C592CF3
:1008B0002B2DC30181300A128A1544240A128A1191
:1008C00083120313C301C30A1A080A128A154424A7
:1008D0000A128A11831203138C121A08262D83120E
:1008E00003138C1A742C752C212D7908DF00E0017C
:1008F0005F08D6006008D7004030D8000A128A1579
:1009000016260A128A1183120313C301C0300A1279
:100910008A1544240A128A11403083120313C50039
:100920000030C6000A128A159C240A128A1101306E
:10093000F902023083120313E1008630E0009830A0
:10094000DF00DF0BA12CE00BA12CE10BA12C0000A0
:10095000262D7908DF00E0015F08D6006008D70087
:100960004030D8000A128A1516260A128A118312FC
:100970000313C301C0300A128A1544240A128A11D3
:10098000403083120313C5000030C6000A128A15D6
:100990009C240A128A110130F902023083120313D7
:1009A000E1008630E0009830DF00DF0BD52CE00B53
:1009B000D52CE10BD52C00003330831203131A061B
:1009C000031DE32CE42C1F2DC30182300A128A156B
:1009D00044240A128A1183120313C301C30A1A089A
:1009E0000A128A1544240A128A11831203138C12E4
:1009F0001A083C30F900C301C0300A128A15442499
:100A00000A128A117D3083120313C5008030C6009C
:100A10000A128A159C240A128A11063083120313C3
:100A2000E1001330E000AD30DF00DF0B152DE00BEF
:100A3000152DE10B152D831203131A08622D8C124C
:100A40001A087908031D252D262DA92C7908031DC8
:100A50002A2D2B2D6F2C831203138C121A08790860
:100A6000031D332D342D1E2C7908031D382D392DEF
:100A7000E42B831203138C121A087908031D412DED
:100A8000422D932B442B7908031D472D482D452BD0
:100A900083120313C30101300A128A1544240A1277
:100AA0008A11313083120313C5008030C6000A1248
:100AB0008A159C240A128A11831203138C123C306B
:100AC000F9000D2D080083120313E2013C30F900F8
:100AD000212F05308312031362060319702D712D27
:100AE000A62E3A080319752D762DA32D6208031D35
:100AF0007A2D7B2DA32DC30101300A128A154424BF
:100B00000A128A1183120313C301C30A3A08013E71
:100B100084000A128A1159270A128A110A128A15A8
:100B200044240A128A11831203133A08013E8400F6
:100B30000A128A1159270A128A11BF00BA0101301C
:100B4000DF005F08E2073A080319A72DA82DD62D6C
:100B50006203031DAC2DAD2DD62DC3016208803E6E
:100B60000A128A1544240A128A1183120313C3013C
:100B7000C30A3A08013E84000A128A1159270A1250
:100B80008A110A128A1544240A128A118312031345
:100B90003A08013E84000A128A1159270A128A1162
:100BA000BE00BA010130DF005F08E2073A0803190E
:100BB000DA2DDB2D0A2E02306206031DE02DE12D19
:100BC0000A2EC3016208803E0A128A1544240A12C2
:100BD0008A1183120313C301C30A3A08013E840039
:100BE0000A128A1159270A128A110A128A154424F4
:100BF0000A128A11831203133A08013E84000A1272
:100C00008A1159270A128A11BD00BA010130DF008A
:100C10005F08E2073A0803190E2E0F2E3E2E03300E
:100C20006206031D142E152E3E2EC3016208803E5F
:100C30000A128A1544240A128A1183120313C3016B
:100C4000C30A3A08013E84000A128A1159270A127F
:100C50008A110A128A1544240A128A118312031374
:100C60003A08013E84000A128A1159270A128A1191
:100C7000BC00BA010130DF005F08E2073A0803193F
:100C8000422E432E722E04306206031D482E492E3A
:100C9000722EC3016208803E0A128A1544240A1289
:100CA0008A1183120313C301C30A3A08013E840068
:100CB0000A128A1159270A128A110A128A15442423
:100CC0000A128A11831203133A08013E84000A12A1
:100CD0008A1159270A128A11BB00BA010130DF00BC
:100CE0005F08E2077908DF00E0015F08D6006008CE
:100CF000D7004030D8000A128A1516260A128A1127
:100D000083120313C301C0300A128A1544240A1245
:100D10008A11403083120313C5000030C6000A1246
:100D20008A159C240A128A110130F90203308312B9
:100D30000313E1000830E0007630DF00DF0B9E2E69
:100D4000E00B9E2EE10B9E2E0000212F0A128A1529
:100D500014240A128A1130300A128A1519240A1230
:100D60008A1131300A128A1519240A128A11323076
:100D70000A128A1519240A128A11831203133F08D2
:100D80000A128A1519240A128A11831203133E08C3
:100D90000A128A1519240A128A11831203133D08B4
:100DA0000A128A1519240A128A11831203133C08A5
:100DB0000A128A1519240A128A11831203133B0896
:100DC0000A128A1519240A128A110D300A128A157C
:100DD00019240A128A110A300A128A1519240A12D1
:100DE0008A110A128A150F240A128A118312031318
:100DF000C30101300A128A1544240A128A1175307F
:100E000083120313C5008030C6000A128A159C2481
:100E10000A128A11831203138C123C30F90003303A
:100E200083120313E1008A30E0005530DF00DF0B4E
:100E3000172FE00B172FE10B172F831203131A083C
:100E40004E2F7908031D252F262F692D831203139A
:100E5000C30101300A128A1544240A128A1114307F
:100E600083120313C5008030C6000A128A159C2421
:100E70000A128A11831203138C123C30F9000630D7
:100E800083120313E1001330E000AD30DF00DF0B0D
:100E9000472FE00B472FE10B472F1D2F0800FF1BAB
:100EA000592F83137F1883170008840A0319FF0A38
:100EB000080007308A000408840A820700342334BB
:100EC0003734343431342A343834353432343034ED
:100ED0003934363433340134023404340834FE34C3
:100EE000FD34FB3443346F34643469346334653423
:100EF00020345334633461346434753474346F345F
:100F0000003441347434743465346E34643465347C
:100F1000723465342E342E342E342E34003454344E
:100F200065346D3470346F34203453346334613439
:100F30006434753474346F3400344134743474342C
:100F400065346E3464346534723465342E342E3432
:100F50002E34003441347434743465346E34643463
:100F60006534723465342E342E3400344134743494
:100F7000743465346E3464346534723465342E34BC
:100F8000003441347434743465346E3464346534FC
:100F90007234653400345034723465346D346934DD
:100FA00020342A3400344D3461346E346434613476
:100FB00074346F340034463441345434543441343E
:100FC000003483120313C600C501461CE82FE92F25
:100FD000ED2F4308C4004408C5070310C30D0310D8
:100FE000C60C4608031DF52FF62FE52F450808000F
:100FF00064008001840A0406031900340406F92FF2
:10181A0031343034831203130710871408008312FB
:10182A00031307148710080083120313C3000C1E46
:10183A001F2C202C1C2C4308990008008316031324
:10184A0081128111011581140114063083120313C8
:10185A0081000B118B168B170800831603130713CD
:10186A008717181533309900181283120313981723
:10187A00831603139816831203131816080083128B
:10188A000313C400831603138801891009118312F4
:10189A000313891444088800430C031C0911031814
:1018AA00091589108914080083120313C401C5019C
:1018BA00642C0130C4070318C50A0030C507BA30C2
:1018CA0044064504031D6A2C6B2C5E2C0108C300D8
:1018DA000B114308080083120313C900CC01CC0A78
:1018EA00CA01CB018B2C831203134908C3004C088D
:1018FA000A128A11E1270A128A1583120313CC00ED
:10190A000130CA070318CB0A0030CB074B08803ACC
:10191A00C80080304802031D942C47084A02031C61
:10192A00972C982C782C831203134C0808008312E6
:10193A000313CA01CB01C72CC301C30A4A084507CE
:10194A00C8004608C7000318C70ACA1FAD2CC70338
:10195A00831203134708C9004908FF004808840096
:10196A000A128A114F270A128A150A128A15442462
:10197A000A128A15013083120313CA070318CB0A05
:10198A000030CB074A084507C8004608C7000318B5
:10199A00C70ACA1FD12CC703831203134708C900F9
:1019AA004908FF00480884000A128A114F270A12C0
:1019BA008A15003A031DE22CE32CA12C080083129D
:1019CA000313C901C61FEA2CEB2CF22CC509C60960
:1019DA00C50A0319C60AC901C90AC41FF52CF62C7F
:1019EA00FB2CC309C409C30A0319C40A43084404E3
:1019FA000319002D012D302DC801C80A0F2D013001
:101A0A000310C30DC40DFF3E031D052D0130C70091
:101A1A004708C807C41F122D132D042D4408460277
:101A2A00031D192D43084502031C1C2D1D2D232DB2
:101A3A004308C5024408031CC603C602013003104A
:101A4A00C40CC30CFF3E031D242D0130C802031D24
:101A5A002F2D302D132D49080319342D352D3A2DEC
:101A6A00C509C609C50A0319C60A4608C4004508B5
:101A7A00C300080083120313D301CE1F452D462D40
:101A8A004D2DCD09CE09CD0A0319CE0AD301D30AA9
:101A9A00D01F502D512D5A2DCF09D009CF0A031925
:101AAA00D00A0130D1005108D306D401D5014D081E
:101ABA004E040319612D622D992DD201D20A702D7F
:101ACA0001300310CD0DCE0DFF3E031D662D0130F2
:101ADA00D1005108D207CE1F732D742D652D013008
:101AEA000310D40DD50DFF3E031D752D4E0850026F
:101AFA00031D812D4D084F02031C842D852D8C2D2D
:101B0A004D08CF024E08031CD003D00254140130F2
:101B1A000310CE0CCD0CFF3E031D8D2D0130D202D9
:101B2A00031D982D992D742D530803199D2D9E2D53
:101B3A00A32DD409D509D40A0319D50A5508CE000C
:101B4A005408CD000800831203130911891082304A
:101B5A0083120313C600DD30C500C50BB22DC60BB8
:101B6A00B22D831203138914C30138300A128A155D
:101B7A0044240A128A15213083120313C6007530D1
:101B8A00C500C50BC62DC60BC62DCB2D831203135C
:101B9A00C30138300A128A1544240A128A150730FA
:101BAA0083120313C6007C30C500C50BDA2DC60BA1
:101BBA00DA2D000083120313C30138300A128A1582
:101BCA0044240A128A1583120313C30108300A1225
:101BDA008A1544240A128A1583120313C3010F308B
:101BEA000A128A1544240A128A1583120313C3019E
:101BFA0001300A128A1544240A128A158312031321
:101C0A00C3010C300A128A1544240A128A15831257
:101C1A000313C30180300A128A1544240A128A1552
:101C2A00080083120313DD01DD0A1F2E0130D900DB
:101C3A005908DD075D08C7000A300A128A157024A0
:101C4A000A128A1583120313D900DA015908CD0042
:101C5A005A08CE005708D0005608CF000A128A1533
:101C6A003F250A128A15831203134D084E04031DD9
:101C7A003F2E402E1B2EDE01842E5E085D02FF3EA3
:101C8A00C7000A300A128A1570240A128A158312AA
:101C9A000313DC005E085807D900590884005C0861
:101CAA00DA00DB015A08CD005B08CE005708D000E5
:101CBA005608CF000A128A153F250A128A1583127E
:101CCA0003134D08303E831380005C08D900DA0103
:101CDA005908C3005A08C4005708C6005608C50068
:101CEA000A128A15E4240A128A1583120313440875
:101CFA00D7004308D6000130D9005908DE075D082D
:101D0A005E02031C892E8A2E422E5E085807D900CD
:101D1A00590884008313800108000F3083120313CB
:101D2A00C3004308831603138804F70103307702BC
:101D3A00031CA02EA12EA22E9A2E8312031306088C
:101D4A00073886007708113E84000A128A1159273B
:101D5A000A128A15C30043088605F6010430760282
:101D6A00031CB82EB92EBA2E192F76080D3E840000
:101D7A000A128A1159270A128A150805031DC62E46
:101D8A00C72ED02E781CCA2ECB2ED02E781001301A
:101D9A00C3004308F50776080D3E84000A128A112B
:101DAA0059270A128A1508050319DC2EDD2E002F81
:101DBA007818E02EE12E002F413083120313C4005D
:101DCA00ED30C300C30BE72EC40BE72EEC2E7608CA
:101DDA000D3E84000A128A1159270A128A158312A3
:101DEA00031308050319FA2EFB2E002F7818FE2E6E
:101DFA00FF2E002F7814750838060319052F062FB1
:101E0A00142F7708C30002300310C30DFF3E031DD1
:101E1A00092F76084307BA007508B8001E2F01304B
:101E2A00C3004308F607B32E0130C3004308F7077F
:101E3A009B2E08000B1D222F232F1F2F0B110B1D6A
:101E4A00272F282F242F0B110B1D2C2F2D2F292F35
:101E5A000B110B1D312F322F2E2F0B110B1D362F6D
:101E6A00372F332F0B110B1D3B2F3C2F382F0B1104
:101E7A000B1D402F412F3D2F0B110B1D452F462FB8
:101E8A00422F0B110B1D4A2F4B2F472F0B110B1DE6
:101E9A004F2F502F4C2F0B110B1D542F552F512FF5
:101EAA000B110B1D592F5A2F562F0B110B1D5E2F7D
:101EBA005F2F5B2F0B110B1D632F642F602F0B11EC
:101ECA000B1D682F692F652F0B1183120313300323
:101EDA003104031D712F722FF52F0F30F000700897
:101EEA00831603138804F70103307702031C7E2F3D
:101EFA007F2F802FF22F8312060807388600770873
:101F0A00113E84000A128A1159270A128A15F00012
:101F1A0070088605F60104307602031C952F962F69
:101F2A00972FED2F76080D3E84000A128A11592741
:101F3A000A128A150805031DA32FA42FAD2F781C9A
:101F4A00A72FA82FAD2F78100130F0007008F507E1
:101F5A0076080D3E84000A128A1159270A128A1538
:101F6A0008050319B92FBA2FD02F7818BD2FBE2F05
:101F7A00D02F76080D3E84000A128A1159270A12B8
:101F8A008A1508050319CA2FCB2FD02F7818CE2F00
:101F9A00CF2FD02F7814750838060319D52FD62FCE
:101FAA00E32F7708F00002300310F00DFF3E031D07
:101FBA00D92F76087007BA007508B8000130F0000A
:101FCA007008F60704307602031CEC2FED2F972FCA
:101FDA000130F0007008F707792F831603130808F9
:101FEA007408FF0073088A0072088400710E830067
:061FFA00FE0E7E0E090040
:08400000FF3FFF3FFF3FFF3FC0
:02400E003A3F37
:00000001FF
