:060000000A128A1110280B
:10000800FE00030EF1000408F2000A08F3007F085E
:10001800F4000A128A11DD2D0A128A1113280A1215
:100028008A15C9250A128A11E9000A128A15CA25F1
:100038000A128A11EA000A128A15CB250A128A11B5
:10004800EB008313A0308400B0300A128A15D6253D
:100058000A128A112030840049300A128A15D625DE
:100068000A128A11F501F601F701F801F901830175
:100078000A128A113F288316031385018601870116
:10008800880189010A128A15F7250A128A110A12AB
:100098008A1193270A128A110A128A15E8250A1268
:1000A8008A1183120313C90101300A128A1509261D
:1000B8000A128A116A3083120313CB008030CC00F5
:1000C8000A128A1578260A128A11B4308312031389
:1000D800E9000030EA000A128A151E260A128A115F
:1000E80083120313C5000A128A151E260A128A11E2
:1000F80083120313C4000A128A151E260A128A11D3
:1001080083120313C3000A128A151E260A128A11C3
:1001180083120313C2000A128A151E260A128A11B4
:1001280083120313C100AD280A128A117D260A1210
:100138008A11831203133B08013E84000A128A11B4
:1001480014270A128A112A3A031DAB28AC28AD28B5
:10015800B22826080319B128B2289828C901013005
:100168000A128A1509260A128A11603083120313AB
:10017800CB008030CC000A128A1578260A128A1120
:10018800CD280A128A151E260A128A118312031311
:10019800C50030308312031345060319D428D52827
:1001A8000B29313045060319DA28DB280B293230B0
:1001B80045060319E028E1280B29333045060319C1
:1001C800E628E7280B29343045060319EC28ED28E2
:1001D8000B29353045060319F228F3280B29363048
:1001E80045060319F828F9280B293730450603195D
:1001F800FE28FF280B29383045060319042905294C
:100208000B2939304506031D0A290B29C528C901C0
:1002180001300A128A1509260A128A114A308312F5
:100228000313CB008030CC000A128A1578260A12F4
:100238008A1126290A128A151E260A128A11831281
:100248000313C400303083120313440603192D2905
:100258002E296429313044060319332934296429A5
:1002680032304406031939293A29642933304406BF
:1002780003193F29402964293430440603194529C4
:10028800462964293530440603194B294C29642929
:100298003630440603195129522964293730440657
:1002A80003195729582964293830440603195D2948
:1002B8005E29642939304406031D632964291E29EF
:1002C800C90101300A128A1509260A128A113E301C
:1002D80083120313CB008030CC000A128A157826CB
:1002E8000A128A117F290A128A151E260A128A11F1
:1002F80083120313C3003030831203134306031918
:1003080086298729BD293130430603198C298D296F
:10031800BD2932304306031992299329BD29333068
:100328004306031998299929BD293430430603192E
:100338009E299F29BD29353043060319A429A529DB
:10034800BD29363043060319AA29AB29BD29373000
:1003580043060319B029B129BD29383043060319CA
:10036800B629B729BD2939304306031DBC29BD2943
:100378007729C90101300A128A1509260A128A1139
:10038800313083120313CB008030CC000A128A1557
:1003980078260A128A11D8290A128A151E260A12E4
:1003A8008A1183120313C2003030831203134206EA
:1003B8000319DF29E029162A313042060319E529F5
:1003C800E629162A323042060319EB29EC29162AA7
:1003D800333042060319F129F229162A343042062D
:1003E8000319F729F829162A353042060319FD2979
:1003F800FE29162A363042060319032A042A162A29
:10040800373042060319092A0A2A162A38304206C2
:1004180003190F2A102A162A39304206031D152AF5
:10042800162AD029C90101300A128A1509260A128A
:100438008A11233083120313CB008030CC000A12B8
:100448008A1578260A128A11312A0A128A151E2656
:100458000A128A1183120313C10030308312031366
:1004680041060319382A392A6F2A313041060319FF
:100478003E2A3F2A6F2A323041060319442A452A68
:100488006F2A3330410603194A2A4B2A6F2A34301F
:1004980041060319502A512A6F2A3530410603199B
:1004A800562A572A6F2A3630410603195C2A5D2AD4
:1004B8006F2A373041060319622A632A6F2A3830B7
:1004C80041060319682A692A6F2A39304106031D33
:1004D8006E2A6F2A292A30300A128A15DE250A1256
:1004E8008A1183120313B601B60A0A128A15D12596
:1004F8000A128A1101300A128A15DE250A128A1197
:100508008312031345080A128A15DE250A128A1176
:100518008312031344080A128A15DE250A128A1167
:100528008312031343080A128A15DE250A128A1158
:100538008312031342080A128A15DE250A128A1149
:100548008312031341080A128A15DE250A128A113A
:100558002A300A128A15DE250A128A118312031319
:10056800C90101300A128A1509260A128A11831252
:100578000313C901C90A45080A128A1509260A126D
:100588008A1183120313C901C90A44080A128A1579
:1005980009260A128A1183120313C901C90A4308DA
:1005A8000A128A1509260A128A1183120313C9012D
:1005B800C90A42080A128A1509260A128A118312E0
:1005C8000313C901C90A41080A128A1509260A1221
:1005D8008A1183120313BB010A128A15CC250A1249
:1005E8008A11013083120313B2000030B3000A12DB
:1005F8008A1126230A128A1183120313C9010130B2
:100608000A128A1509260A128A1183120313C901CC
:10061800C0300A128A1509260A128A11603083121C
:100628000313CB008030CC000A128A1578260A12F0
:100638008A110A128A1119250A128A1155280A12D2
:100648008A11102883120313E801FD2C053068066F
:1006580003192F2B302B682C3B080319342B352B0F
:10066800622B6808031D392B3A2B622BC901013014
:100678000A128A1509260A128A1183120313C9015C
:10068800C90A3B08013E84000A128A1114270A127B
:100698008A110A128A1509260A128A11831203136B
:1006A8003B08013E84000A128A1114270A128A1193
:1006B800C000BB010130E5006508E8073B080319E5
:1006C800662B672B952B6803031D6B2B6C2B952BC7
:1006D800C9016808803E0A128A1509260A128A1179
:1006E80083120313C901C90A3B08013E84000A1298
:1006F8008A1114270A128A110A128A1509260A125F
:100708008A11831203133B08013E84000A128A11DE
:1007180014270A128A11BF00BB010130E5006508E1
:10072800E8073B080319992B9A2BC92B0230680656
:10073800031D9F2BA02BC92BC9016808803E0A12F4
:100748008A1509260A128A1183120313C901C90AD4
:100758003B08013E84000A128A1114270A128A11E2
:100768000A128A1509260A128A11831203133B08F2
:10077800013E84000A128A1114270A128A11BE0047
:10078800BB010130E5006508E8073B080319CD2BDC
:10079800CE2BFD2B03306806031DD32BD42BFD2B4A
:1007A800C9016808803E0A128A1509260A128A11A8
:1007B80083120313C901C90A3B08013E84000A12C7
:1007C8008A1114270A128A110A128A1509260A128E
:1007D8008A11831203133B08013E84000A128A110E
:1007E80014270A128A11BD00BB010130E500650813
:1007F800E8073B080319012C022C312C0430680649
:10080800031D072C082C312CC9016808803E0A12E8
:100818008A1509260A128A1183120313C901C90A03
:100828003B08013E84000A128A1114270A128A1111
:100838000A128A1509260A128A11831203133B0821
:10084800013E84000A128A1114270A128A11BC0078
:10085800BB010130E5006508E8076A08DD006908A2
:10086800DC004630DE000A128A1584270A128A1133
:1008780083120313C9018D300A128A1509260A1238
:100888008A11463083120313CB000030CC000A12C1
:100898008A1578260A128A11FF3083120313E90792
:1008A8000318EA0AFF30EA07073083120313E70048
:1008B8001730E6006930E500E50B602CE60B602C8C
:1008C800E70B602C672CFD2C0A128A15D1250A1219
:1008D8008A1130300A128A15DE250A128A1102306E
:1008E8000A128A15DE250A128A1183120313450893
:1008F8000A128A15DE250A128A1183120313440884
:100908000A128A15DE250A128A1183120313430874
:100918000A128A15DE250A128A1183120313420865
:100928000A128A15DE250A128A1183120313410856
:100938000A128A15DE250A128A1183120313400847
:100948000A128A15DE250A128A11831203133F0838
:100958000A128A15DE250A128A11831203133E0829
:100968000A128A15DE250A128A11831203133D081A
:100978000A128A15DE250A128A11831203133C080B
:100988000A128A15DE250A128A112A300A128A15D5
:10099800DE250A128A110A128A15CC250A128A1132
:1009A80083120313C90101300A128A1509260A1293
:1009B8008A11723083120313CB008030CC000A12E4
:1009C8008A1578260A128A11831203138C120B30A7
:1009D80083120313E7002630E6005D30E500E50BDF
:1009E800F32CE60BF32CE70BF32C831203131A08F2
:1009F800182D8312031369086A04031D042D052D9D
:100A08002A2BC90101300A128A1509260A128A11ED
:100A1800143083120313CB008030CC000A128A15DD
:100A280078260A128A11E82C080083120313E801B9
:100A3800A82D6A08DD006908DC004630DE000A12CD
:100A48008A1584270A128A1183120313C9018D306B
:100A58000A128A1509260A128A11463083120313CC
:100A6800CB000030CC000A128A1578260A128A11A7
:100A7800FF3083120313E9070318EA0AFF30EA0775
:100A8800073083120313E7001730E6006930E500EA
:100A9800E50B4C2DE60B4C2DE70B4C2D532D8312FB
:100AA800031369086A0403195A2D5B2D5F2D8C1EE8
:100AB8005E2D5F2D1D2D68082C3E84001A088313B7
:100AC8008000C9016808803E0A128A1509260A12A0
:100AD8008A1183120313C901C90A68082C3E8400CD
:100AE800831300080A128A1509260A128A1101308E
:100AF80083120313E5006508E8076A08DD00690842
:100B0800DC004630DE000A128A1584270A128A1190
:100B180083120313C9018D300A128A1509260A1295
:100B28008A11463083120313CB000030CC000A121E
:100B38008A1578260A128A11FF3083120313E907EF
:100B48000318EA0AFF30EA0702306802031CAD2DD9
:100B5800AE2D532D30302C06031DB32DB42DD92DB9
:100B68002D08031DB82DB92DD92DC901C0300A1281
:100B78008A1509260A128A11553083120313CB00ED
:100B88008030CC000A128A1578260A128A110B3096
:100B980083120313E7002630E6005D30E500E50B1D
:100BA800D32DE60BD32DE70BD32D831203131A088D
:100BB80008000B1DE02DE12DDD2D0B110B1DE52D82
:100BC800E62DE22D0B118312031332033304031DA8
:100BD800EE2DEF2D722E0F30F000700883160313E0
:100BE8008804F80103307802031CFB2DFC2DFD2D31
:100BF8006F2E83120608073886007808113E840095
:100C08000A128A1114270A128A11F0007008860540
:100C1800F70104307702031C122E132E142E6A2EAD
:100C280077080D3E84000A128A1114270A128A11C5
:100C38000805031D202E212E2A2E791C242E252E50
:100C48002A2E79100130F0007008F60777080D3E5B
:100C580084000A128A1114270A128A110805031936
:100C6800362E372E4D2E79183A2E3B2E4D2E7708DC
:100C78000D3E84000A128A1114270A128A110805E7
:100C88000319472E482E4D2E79184B2E4C2E4D2EDB
:100C98007914760875060319522E532E602E78089B
:100CA800F00002300310F00DFF3E031D562E7708AA
:100CB8007007BB007608F5000130F0007008F707F0
:100CC80004307702031C692E6A2E142E0130F000BE
:100CD8007008F807F62D8316031308087408FF0038
:100CE80073088A0072088400710E8300FE0E7E0E5F
:100CF80009000F3083120313C90049088316031330
:100D08008804F80103307802031C8B2E8C2E8D2E5C
:100D1800852E831203130608073886007808113ECB
:100D280084000A128A1114270A128A11C900490874
:100D38008605F70104307702031CA32EA42EA52EE6
:100D4800042F77080D3E84000A128A1114270A120C
:100D58008A110805031DB12EB22EBB2E791CB52EA3
:100D6800B62EBB2E79100130C9004908F60777085E
:100D78000D3E84000A128A1114270A128A110805E6
:100D88000319C72EC82EEB2E7918CB2ECC2EEB2E9E
:100D98001A3083120313CA00F730C900C90BD22EC8
:100DA800CA0BD22ED72E77080D3E84000A128A115C
:100DB80014270A128A118312031308050319E52E52
:100DC800E62EEB2E7918E92EEA2EEB2E791476080A
:100DD80075060319F02EF12EFF2E7808C90002308F
:100DE8000310C90DFF3E031DF42E77084907BB0009
:100DF8007608F500092F0130C9004908F7079E2E2B
:100E08000130C9004908F807862E0800FF1B142F77
:100E180083137F1883170008840A0319FF0A080040
:100E280007308A000408840A8207003423343734E0
:100E3800343431342A343834353432343034393473
:100E4800363433340134023404340834FE34FD3487
:100E5800FB3443346F346434693463346534203488
:100E68005334633461346434753474346F34003407
:100E780041347434743465346E3464346534723493
:100E880065342E342E342E342E34003441347434E8
:100E9800743465346E3464346534723465342E3495
:100EA8002E342E34003441347434743465346E3442
:100EB80064346534723465342E342E34003441344D
:100EC8007434743465346E3464346534723465341F
:100ED8002E340034413450345234493420345034A0
:100EE8004F345234543441340034413474347434FB
:100EF80065346E3464346534723465340034503487
:100F0800723465346D34693420342A3400344D34F5
:100F180061346E346434613474346F340034831251
:100F2800031309118910343083120313CC00F130F4
:100F3800CB00CB0B9D2FCC0B9D2F83120313891451
:100F4800C90138300A128A1509260A128A110D3089
:100F580083120313CC00FB30CB00CB0BB12FCC0B8F
:100F6800B12F83120313C90138300A128A150926D2
:100F78000A128A11033083120313CC009730CB0076
:100F8800CB0BC42FCC0BC42F83120313C9013830E9
:100F98000A128A1509260A128A1183120313C90133
:100FA80008300A128A1509260A128A1183120313B5
:100FB800C9010F300A128A1509260A128A118312EA
:100FC8000313C90101300A128A1509260A128A1167
:100FD80083120313C9010C300A128A1509260A1252
:100FE8008A1183120313C90180300A128A1509264F
:060FF8000A128A11080034
:101B9200B43400343034831203130710871408005E
:101BA2008312031307148710080064008001840A5B
:101BB2000406031900340406D72D83120313C90047
:101BC2000C1EE42DE52DE12D49089900080083162D
:101BD200031381128111011581140114063083123D
:101BE200031381000B118B168B1708008316031346
:101BF200071387171815333099001812831203132D
:101C020098178316031398168312031318160800E5
:101C120083120313CA008316031388018910091162
:101C22008312031389144A088800490C031C091102
:101C32000318091589108914080083120313CA01B5
:101C4200CB01292E0130CA070318CB0A0030CB077B
:101C5200BA304A064B04031D2F2E302E232E0108C4
:101C6200C9000B114908080083120313CC00CB01F1
:101C72004C1C3C2E3D2E412E4908CA004A08CB0777
:101C82000310C90D0310CC0C4C08031D492E4A2E1B
:101C9200392E4B08080083120313CF00D201D20A57
:101CA200D001D101672E831203134F08C9005208D5
:101CB2000A128A1535260A128A1583120313D200D4
:101CC2000130D0070318D10A0030D1075108803AF9
:101CD200CE0080304E02031D702E4D085002031CB0
:101CE200732E742E542E831203135208080083128B
:101CF2000313D001D101A32EC901C90A50084B0711
:101D0200CE004C08CD000318CD0AD01F892ECD037A
:101D1200831203134D08CF004F08FF004E088400C2
:101D22000A128A110A270A128A150A128A15092624
:101D32000A128A15013083120313D0070318D10A3D
:101D42000030D10750084B07CE004C08CD000318D5
:101D5200CD0AD01FAD2ECD03831203134D08CF0041
:101D62004F08FF004E0884000A128A110A270A123D
:101D72008A15003A031DBE2EBF2E7D2E0800831247
:101D82000313CF01CC1FC62EC72ECE2ECB09CC09F2
:101D9200CB0A0319CC0ACF01CF0ACA1FD12ED22EE9
:101DA200D72EC909CA09C90A0319CA0A49084A0425
:101DB2000319DC2EDD2E0C2FCE01CE0AEB2E0130C4
:101DC2000310C90DCA0DFF3E031DE12E0130CD00E7
:101DD2004D08CE07CA1FEE2EEF2EE02E4A084C0207
:101DE200031DF52E49084B02031CF82EF92EFF2E77
:101DF2004908CB024A08031CCC03CC020130031071
:101E0200CA0CC90CFF3E031D002F0130CE02031D78
:101E12000B2F0C2FEF2E4F080319102F112F162FF7
:101E2200CB09CC09CB0A0319CC0A4C08CA004B08CF
:101E3200C900080083120313D901D41F212F222FB6
:101E4200292FD309D409D30A0319D40AD901D90AEB
:101E5200D61F2C2F2D2F362FD509D609D50A0319B7
:101E6200D60A0130D7005708D906DA01DB01530838
:101E7200540403193D2F3E2F752FD801D80A4C2F39
:101E820001300310D30DD40DFF3E031D422F01304C
:101E9200D7005708D807D41F4F2F502F412F01309A
:101EA2000310DA0DDB0DFF3E031D512F54085602BD
:101EB200031D5D2F53085502031C602F612F682FED
:101EC2005308D5025408031CD603D6025A14013013
:101ED2000310D40CD30CFF3E031D692F0130D8022E
:101EE200031D742F752F502F59080319792F7A2F3C
:101EF2007F2FDA09DB09DA0A0319DB0A5B08D4004F
:101F02005A08D300080083120313E301E30A8D2F5A
:101F12000130DF005F08E3076308CD000A300A12D0
:101F22008A154C260A128A1583120313DF00E00178
:101F32005F08D3006008D4005D08D6005C08D500B5
:101F42000A128A151B270A128A15831203135308D1
:101F52005404031DAD2FAE2F892FE401F22F640824
:101F62006302FF3ECD000A300A128A154C260A127D
:101F72008A1583120313E20064085E07DF005F081C
:101F820084006208E000E1016008D3006108D40027
:101F92005D08D6005C08D5000A128A151B270A12B2
:101FA2008A15831203135308303E8313800062089C
:101FB200DF00E0015F08C9006008CA005D08CC00CC
:101FC2005C08CB000A128A15C0260A128A158312EF
:101FD20003134A08DD004908DC000130DF005F0816
:101FE200E40763086402031CF72FF82FB02F64087C
:0E1FF2005E07DF005F08840083138001080093
:08400000FF3FFF3FFF3FFF3FC0
:02400E003A3F37
:00000001FF
