:060000000A128A1110280B
:10000800FE00030EF1000408F2000A08F3007F085E
:10001800F4000A128A11262D0A128A1113280A12CC
:100028008A1524260A128A11E2000A128A15252640
:100038000A128A11E3000A128A1526260A128A1160
:10004800E4008313A0308400B0300A128A152C26ED
:100058000A128A112030840042300A128A152C268E
:100068000A128A11F501F601F701F801F901830175
:100078000A128A113F288316031385018601870116
:10008800880189010A128A154D260A128A110A1254
:100098008A1592270A128A110A128A153E260A120E
:1000A8008A1183120313C20101300A128A155F26CE
:1000B8000A128A11833083120313C4008030C500EA
:1000C8000A128A11B2270A128A110A128A11FA2709
:1000D8000A128A1150300A128A1534260A128A1115
:1000E80072300A128A1534260A128A1165300A12E9
:1000F8008A1534260A128A116D300A128A15342696
:100108000A128A1169300A128A1534260A128A11CB
:1001180020300A128A1534260A128A112A300A1245
:100128008A1534260A128A110D300A128A153426C5
:100138000A128A110A300A128A1534260A128A11FA
:100148000A128A1574260A128A1183120313BE0032
:100158000A128A1574260A128A1183120313BD0023
:100168000A128A1574260A128A1183120313BC0014
:100178000A128A1574260A128A1183120313BB0005
:100188000A128A1574260A128A1183120313BA00F6
:10019800E2280A128A11A9260A128A118312031365
:1001A8003908013E84000A128A1111260A128A119E
:1001B8002A3A031DE028E128E228E728260803193F
:1001C800E628E728CD28C20101300A128A155F26E1
:1001D8000A128A11703083120313C4008030C500DC
:1001E8000A128A11B2270A128A1102290A128A15DA
:1001F80074260A128A1183120313BE003030831248
:1002080003133E06031909290A29402931303E06FD
:1002180003190F291029402932303E0603191529E0
:100228001629402933303E0603191B291C29402969
:1002380034303E06031921292229402935303E064B
:10024800031927292829402936303E0603192D2964
:100258002E29402937303E060319332934294029ED
:1002680038303E06031939293A29402939303E06E3
:10027800031D3F294029FA28C20101300A128A15B4
:100288005F260A128A11653083120313C400803076
:10029800C5000A128A11B2270A128A115B290A12AA
:1002A8008A1574260A128A1183120313BD0030308E
:1002B800831203133D0603196229632999293130F2
:1002C8003D06031968296929992932303D06031921
:1002D8006E296F29992933303D0603197429752928
:1002E800992934303D0603197A297B299929353013
:1002F8003D06031980298129992936303D060319BD
:1003080086298729992937303D0603198C298D2993
:10031800992938303D0603199229932999293930AA
:100328003D06031D982999295329C20101300A1253
:100338008A155F260A128A11593083120313C400E2
:100348008030C5000A128A11B2270A128A11B4290C
:100358000A128A1574260A128A1183120313BC0022
:100368003030831203133C060319BB29BC29F22938
:1003780031303C060319C129C229F22932303C0622
:100388000319C729C829F22933303C060319CD2996
:10039800CE29F22934303C060319D329D429F2296D
:1003A80035303C060319D929DA29F22936303C06BA
:1003B8000319DF29E029F22937303C060319E5291A
:1003C800E629F22938303C060319EB29EC29F229F1
:1003D80039303C06031DF129F229AC29C20101304C
:1003E8000A128A155F260A128A113F3083120313F4
:1003F800C4008030C5000A128A11B2270A128A1175
:100408000D2A0A128A1574260A128A1183120313F6
:10041800BB003030831203133B060319142A152A34
:100428004B2A31303B0603191A2A1B2A4B2A323031
:100438003B060319202A212A4B2A33303B0603198D
:10044800262A272A4B2A34303B0603192C2A2D2A20
:100458004B2A35303B060319322A332A4B2A3630C9
:100468003B060319382A392A4B2A37303B06031929
:100478003E2A3F2A4B2A38303B060319442A452A8C
:100488004B2A39303B06031D4A2A4B2A052AC2014A
:1004980001300A128A155F260A128A112330831244
:1004A8000313C4008030C5000A128A11B2270A1249
:1004B8008A11662A0A128A1574260A128A11831268
:1004C8000313BA003030831203133A0603196D2A56
:1004D8006E2AA42A31303A060319732A742AA42AE8
:1004E80032303A060319792A7A2AA42A33303A068E
:1004F80003197F2A802AA42A34303A060319852A48
:10050800862AA42A35303A0603198B2A8C2AA42A6B
:1005180036303A060319912A922AA42A37303A0625
:100528000319972A982AA42A38303A0603199D2ACB
:100538009E2AA42A39303A06031DA32AA42A5E2A31
:1005480030300A128A1534260A128A1131300A12FA
:100558008A1534260A128A11313083120313B40023
:1005680031300A128A1534260A128A1183120313AB
:100578003E080A128A1534260A128A1183120313B6
:100588003D080A128A1534260A128A1183120313A7
:100598003C080A128A1534260A128A118312031398
:1005A8003B080A128A1534260A128A118312031389
:1005B8003A080A128A1534260A128A110D300A12CC
:1005C8008A1534260A128A110A300A128A15342624
:1005D8000A128A1183120313C20101300A128A1502
:1005E8005F260A128A1183120313C201C20A3E0847
:1005F8000A128A155F260A128A1183120313C2018E
:10060800C20A3D080A128A155F260A128A11831245
:100618000313C201C20A3C080A128A155F260A128D
:100628008A1183120313C201C20A3B080A128A15EF
:100638005F260A128A1183120313C201C20A3A08FA
:100648000A128A155F260A128A1183120313B90146
:100658000A128A1527260A128A11013083120313F7
:10066800B0000030B1000A128A1140230A128A1120
:1006780055280A128A11102883120313E1013C300D
:10068800E400F82C0530610603194B2B4C2B832C06
:1006980039080319502B512B7E2B6108031D552B4C
:1006A800562B7E2BC20101300A128A155F260A12C8
:1006B8008A1183120313C201C20A3908013E840059
:1006C8000A128A1111260A128A110A128A155F263D
:1006D8000A128A11831203133908013E84000A1290
:1006E8008A1111260A128A11BE00B9010130DE00F2
:1006F8005E08E10739080319822B832BB12B6103AC
:10070800031D872B882BB12BC2016108803E0A127A
:100718008A155F260A128A1183120313C201C20ABC
:100728003908013E84000A128A1111260A128A1118
:100738000A128A155F260A128A11831203133908CE
:10074800013E84000A128A1111260A128A11BD007C
:10075800B9010130DE005E08E10739080319B52B3D
:10076800B62BE52B02306106031DBB2BBC2BE52BFA
:10077800C2016108803E0A128A155F260A128A1190
:1007880083120313C201C20A3908013E84000A1207
:100798008A1111260A128A110A128A155F260A126C
:1007A8008A11831203133908013E84000A128A1140
:1007B80011260A128A11BC00B9010130DE005E0858
:1007C800E10739080319E92BEA2B192C03306106D4
:1007D800031DEF2BF02B192CC2016108803E0A1271
:1007E8008A155F260A128A1183120313C201C20AEC
:1007F8003908013E84000A128A1111260A128A1148
:100808000A128A155F260A128A11831203133908FD
:10081800013E84000A128A1111260A128A11BB00AD
:10082800B9010130DE005E08E107390803191D2C03
:100838001E2C4D2C04306106031D232C242C4D2C1A
:10084800C2016108803E0A128A155F260A128A11BF
:1008580083120313C201C20A3908013E84000A1236
:100868008A1111260A128A110A128A155F260A129B
:100878008A11831203133908013E84000A128A116F
:1008880011260A128A11BA00B9010130DE005E0889
:10089800E1076408DE00DF015E08D5005F08D600C6
:1008A8003F30D7000A128A1136270A128A1183129A
:1008B8000313C201C0300A128A155F260A128A1170
:1008C8003F3083120313C4000030C5000A128A1196
:1008D800B2270A128A11013083120313E40203308B
:1008E80083120313E0000830DF007630DE00DE0BF1
:1008F8007B2CDF0B7B2CE00B7B2C0000F82C0A12E6
:100908008A11FA270A128A1130300A128A153426F7
:100918000A128A1131300A128A1534260A128A11EB
:10092800831203133E080A128A1534260A128A1102
:10093800831203133D080A128A1534260A128A11F3
:10094800831203133C080A128A1534260A128A11E4
:10095800831203133B080A128A1534260A128A11D5
:10096800831203133A080A128A1534260A128A11C6
:100978000D300A128A1534260A128A110A300A1210
:100988008A1534260A128A110A128A1527260A128B
:100998008A1183120313C20101300A128A155F26D5
:1009A8000A128A118B3083120313C4008030C500E9
:1009B8000A128A11B2270A128A11831203138C129F
:1009C8003C30E400033083120313E0008A30DF0078
:1009D8005530DE00DE0BEE2CDF0BEE2CE00BEE2CA0
:1009E800831203131A08252D831203136408031DA9
:1009F800FE2CFF2C462BC20101300A128A155F26F5
:100A08000A128A11143083120313C4008030C500FF
:100A18000A128A11B2270A128A11831203138C123E
:100A28003C30E400063083120313E0001330DF008B
:100A3800AD30DE00DE0B1E2DDF0B1E2DE00B1E2D54
:100A4800F42C08000B1D292D2A2D262D0B110B1D0A
:100A58002E2D2F2D2B2D0B110B1D332D342D302D1D
:100A68000B110B1D382D392D352D0B110B1D3D2D5F
:100A78003E2D3A2D0B110B1D422D432D3F2D0B11F1
:100A88000B1D472D482D442D0B110B1D4C2D4D2DA5
:100A9800492D0B110B1D512D522D4E2D0B110B1DD8
:100AA800562D572D532D0B110B1D5B2D5C2D582DDD
:100AB8000B110B1D602D612D5D2D0B110B1D652D6F
:100AC800662D622D0B110B1D6A2D6B2D672D0B11D9
:100AD8000B1D6F2D702D6C2D0B118312031330031A
:100AE8003104031D782D792DFC2D0F30F00070088E
:100AF800831603138804F80103307802031C852D3C
:100B0800862D872DF92D8312060807388600780868
:100B1800113E84000A128A1111260A128A11F00065
:100B280070088605F70104307702031C9C2D9D2D63
:100B38009E2DF42D77080D3E84000A128A11112685
:100B48000A128A110805031DAA2DAB2DB42D791C94
:100B5800AE2DAF2DB42D79100130F0007008F607D6
:100B680077080D3E84000A128A1111260A128A118A
:100B780008050319C02DC12DD72D7918C42DC52DF1
:100B8800D72D77080D3E84000A128A1111260A1201
:100B98008A1108050319D12DD22DD72D7918D52DF5
:100BA800D62DD72D7914760875060319DC2DDD2D81
:100BB800EA2D7808F00002300310F00DFF3E031D07
:100BC800E02D77087007B9007608F5000130F000CD
:100BD8007008F70704307702031CF32DF42D9E2DBF
:100BE8000130F0007008F807802D831603130808F9
:100BF8007408FF0073088A0072088400710E83006D
:100C0800FE0E7E0E0900FF1B112E83137F1883171B
:100C18000008840A0319FF0A080006308A0004083D
:100C2800840A8207003423343734343431342A3484
:100C3800383435343234303439343634333401349A
:100C4800023404340834FE34FD34FB3443346F3446
:100C58006434693463346534203453346334613420
:100C68006434753474346F340034413474347434F7
:100C780065346E3464346534723465342E342E34FD
:100C88002E342E340034543465346D3470346F345B
:100C980020345334633461346434753474346F34B9
:100CA800003441347434743465346E3464346534D7
:100CB800723465342E342E342E34003450346F346C
:100CC800723474346134203441347034653472348D
:100CD80074346134003441347434743465346E349B
:100CE80064346534723465342E342E34003441341F
:100CF8007434743465346E346434653472346534F1
:100D08002E34003441347434743465346E346434AD
:100D1800653472346534003452346934633465346C
:100D28007634753474346F34003450347234653426
:100D38006D34693420342A3400344D3461346E34CF
:100D48006434613474346F3400340F308312031305
:100D5800C2004208831603138804F801033078029E
:100D6800031CB72EB82EB92EB12E83120313060812
:100D7800073886007808113E84000A128A11112665
:100D88000A128A11C20042088605F7010430770268
:100D9800031CCF2ED02ED12E302F77080D3E840085
:100DA8000A128A1111260A128A110805031DDD2E5E
:100DB800DE2EE72E791CE12EE22EE72E7910013087
:100DC800C2004208F60777080D3E84000A128A110D
:100DD80011260A128A1108050319F32EF42E172F6B
:100DE8007918F72EF82E172F413083120313C300FA
:100DF800ED30C200C20BFE2EC30BFE2E032F770868
:100E08000D3E84000A128A1111260A128A118312D1
:100E1800031308050319112F122F172F7918152FEF
:100E2800162F172F79147608750603191C2F1D2FF6
:100E38002B2F7808C20002300310C20DFF3E031D9D
:100E4800202F77084207B9007608F500352F0130C2
:100E5800C2004208F707CA2E0130C2004208F8074C
:100E6800B22E080083120313DC01DC0A3F2F013085
:100E7800D8005808DC075C08C6000A300A128A1530
:100E8800A2260A128A1183120313D800D90158081E
:100E9800CC005908CD005608CF005508CE000A12DC
:100EA8008A1529270A128A11831203134C084D0444
:100EB800031D5F2F602F3B2FDD01A42F5D085C020F
:100EC800FF3EC6000A300A128A15A2260A128A11A3
:100ED80083120313DB005D085707D8005808840005
:100EE8005B08D900DA015908CC005A08CD00560829
:100EF800CF005508CE000A128A1529270A128A112E
:100F0800831203134C08303E831380005B08D8001B
:100F1800D9015808C2005908C3005608C500550829
:100F2800C4000A128A15CE260A128A1183120313E4
:100F38004308D6004208D5000130D8005808DD071C
:100F48005C085D02031CA92FAA2F622F5D085707B2
:100F5800D800580884008313800108008312031303
:100F6800C901CA01DD2FC201C20A49084407C700E6
:100F78004508C6000318C60AC91FC32FC603831233
:100F880003134608C8004808FF00470884000A12EF
:100F98008A1107260A128A110A128A155F260A126E
:100FA8008A11013083120313C9070318CA0A0030D3
:100FB800CA0749084407C7004508C6000318C60AF7
:100FC800C91FE72FC603831203134608C800480841
:100FD800FF00470884000A128A1107260A128A119C
:100FE800003A031DF82FF92FB72F080083120313B7
:060FF80007148710080039
:101C4800313430343C3483120313071087140800EE
:101C580064008001840A04060319003404062D2E4A
:101C680083120313C2000C1E3A2E3B2E372E420855
:101C7800990008008316031381128111011581143C
:101C8800011406308312031381000B118B168B1776
:101C980008008316031307138717181533309900A4
:101CA80018128312031398178316031398168312B6
:101CB80003131816080083120313C30083160313B3
:101CC80088018910091183120313891443088800B5
:101CD800420C031C091103180915891089140800FE
:101CE80083120313C301C4017F2E0130C3070318F5
:101CF800C40A0030C407BA3043064404031D852EC5
:101D0800862E792E0108C2000B11420808008312A2
:101D18000313C500C401451C922E932E972E42082A
:101D2800C3004308C4070310C20D0310C50C4508BF
:101D3800031D9F2EA02E8F2E440808008312031324
:101D4800C800CB01CB0AC901CA01BD2E83120313F7
:101D58004808C2004B080A128A158B260A128A15EF
:101D680083120313CB000130C9070318CA0A0030D5
:101D7800CA074A08803AC70080304702031DC62EAA
:101D880046084902031CC92ECA2EAA2E8312031321
:101D98004B08080083120313C801C51FD42ED52E83
:101DA800DC2EC409C509C40A0319C50AC801C80A32
:101DB800C31FDF2EE02EE52EC209C309C20A03198C
:101DC800C30A420843040319EA2EEB2E1A2FC7014F
:101DD800C70AF92E01300310C20DC30DFF3E031DC3
:101DE800EF2E0130C6004608C707C31FFC2EFD2E84
:101DF800EE2E43084502031D032F42084402031C2C
:101E0800062F072F0D2F4208C4024308031CC503E1
:101E1800C50201300310C30CC20CFF3E031D0E2F78
:101E28000130C702031D192F1A2FFD2E4808031968
:101E38001E2F1F2F242FC409C509C40A0319C50A58
:101E48004508C3004408C200080083120313D201E6
:101E5800CD1F2F2F302F372FCC09CD09CC0A0319CE
:101E6800CD0AD201D20ACF1F3A2F3B2F442FCE09D9
:101E7800CF09CE0A0319CF0A0130D0005008D20684
:101E8800D301D4014C084D0403194B2F4C2F832F39
:101E9800D101D10A5A2F01300310CC0DCD0DFF3ED0
:101EA800031D502F0130D0005008D107CD1F5D2FE2
:101EB8005E2F4F2F01300310D30DD40DFF3E031DAD
:101EC8005F2F4D084F02031D6B2F4C084E02031C59
:101ED8006E2F6F2F762F4C08CE024D08031CCF03B0
:101EE800CF02531401300310CD0CCC0CFF3E031D60
:101EF800772F0130D102031D822F832F5E2F5208C6
:101F08000319872F882F8D2FD309D409D30A0319D2
:101F1800D40A5408CD005308CC00080083120313D8
:101F280009118910823083120313C500DD30C40003
:101F3800C40B9C2FC50B9C2F831203138914C20159
:101F480038300A128A155F260A128A152130831240
:101F58000313C5007530C400C40BB02FC50BB02FD8
:101F6800B52F83120313C20138300A128A155F266F
:101F78000A128A15073083120313C5007C30C40087
:101F8800C40BC42FC50BC42F000083120313C20156
:101F980038300A128A155F260A128A15831203132B
:101FA800C20108300A128A155F260A128A1583129E
:101FB8000313C2010F300A128A155F260A128A1506
:101FC80083120313C20101300A128A155F260A120E
:101FD8008A1583120313C2010C300A128A155F2670
:101FE8000A128A1583120313C20180300A128A1555
:081FF8005F260A128A15080099
:08400000FF3FFF3FFF3FFF3FC0
:02400E003A3F37
:00000001FF
