:060000000A128A110C280F
:10000800FE00030EF0000A08F1000A128A116B2F95
:100018000A128A110F280A128A11D7270A128A117E
:10002800DF000A128A11D8270A128A11E0000A1280
:100038008A11D9270A128A11E1000A128A11DA27CD
:100048000A128A11E2000A128A11DB270A128A119F
:10005800E3008313A0308400B0300A128A11CF273E
:100068000A128A112030840043300A128A11CF27DD
:100078000A128A11E401FA01FB0183010A128A11AA
:1000880045288316031385018601870188018901A4
:100098000A128A11A4270A128A110A128A11E8255B
:1000A8000A128A110A128A11B6270A128A11F20153
:1000B80001300A128A111D270A128A116830F600C7
:1000C8008030F7000A128A119B260A128A110A1236
:1000D8008A11DC270A128A1150300A128A11C527A0
:1000E8000A128A1172300A128A11C5270A128A1155
:1000F80065300A128A11C5270A128A116D300A1250
:100108008A11C5270A128A1169300A128A11C5276D
:100118000A128A1120300A128A11C5270A128A1176
:100128002A300A128A11C5270A128A110D300A12BA
:100138008A11C5270A128A110A300A128A11C5279C
:100148000A128A110A128A118B270A128A11FB00D5
:100158000A128A118B270A128A11FA000A128A11C6
:100168008B270A128A1183120313BF000A128A11FD
:100178008B270A128A1183120313BE000A128A11EE
:100188008B270A128A1183120313BD00E0280A1272
:100198008A111A240A128A11831203133C08013E99
:1001A80084000A128A110A250A128A112A3A031DA2
:1001B800DE28DF28E028E52826080319E428E528B2
:1001C800CB28F20101300A128A111D270A128A115E
:1001D8005530F6008030F7000A128A119B260A1261
:1001E8008A110A128A11DC270A128A1101290A12B5
:1001F8008A118B270A128A11FB0030307B060319FB
:10020800062907293D2931307B0603190C290D29B8
:100218003D2932307B060319122913293D29333031
:100228007B060319182919293D2934307B0603193F
:100238001E291F293D2935307B0603192429252924
:100248003D2936307B0603192A292B293D293730C9
:100258007B060319302931293D2938307B060319DB
:10026800362937293D2939307B06031D3C293D298C
:10027800FB28F20101300A128A111D270A128A117D
:100288004A30F6008030F7000A128A119B260A12BB
:100298008A1154290A128A118B270A128A11FA0024
:1002A80030307A06031959295A29902931307A06AB
:1002B80003195F296029902932307A0603196529C4
:1002C8006629902933307A0603196B296C299029FD
:1002D80034307A06031971297229902935307A0643
:1002E800031977297829902936307A0603197D2948
:1002F8007E29902937307A06031983298429902981
:1003080038307A06031989298A29902939307A06DA
:10031800031D8F2990294E29F20101300A128A11F2
:100328001D270A128A113E30F6008030F7000A12A3
:100338008A119B260A128A11A9290A128A118B2767
:100348000A128A1183120313BF0030308312031379
:100358003F060319B029B129E72933303F060319AD
:10036800B629B729E72932303F060319BC29BD2928
:10037800E72933303F060319C229C329E729343056
:100388003F060319C829C929E72935303F0603194B
:10039800CE29CF29E72936303F060319D429D52994
:1003A800E72937303F060319DA29DB29E7293830EE
:1003B8003F060319E029E129E72939303F06031DE3
:1003C800E629E729A129F20101300A128A111D271D
:1003D8000A128A113130F6008030F7000A128A11A9
:1003E8009B260A128A11002A0A128A118B270A12DE
:1003F8008A1183120313BE003030831203133E06A2
:100408000319072A082A3E2A34303E0603190D2A02
:100418000E2A3E2A32303E060319132A142A3E2A8F
:1004280033303E060319192A1A2A3E2A34303E066A
:1004380003191F2A202A3E2A35303E060319252A89
:10044800262A3E2A36303E0603192B2A2C2A3E2A13
:1004580037303E060319312A322A3E2A38303E0602
:100468000319372A382A3E2A39303E06031D3D2A09
:100478003E2AF829F20101300A128A111D270A12B0
:100488008A112330F6008030F7000A128A119B2661
:100498000A128A11572A0A128A118B270A128A11FC
:1004A80083120313BD003030831203133D06031972
:1004B8005E2A5F2A952A35303D060319642A652A83
:1004C800952A32303D0603196A2A6B2A952A333059
:1004D8003D060319702A712A952A34303D060319FE
:1004E800762A772A952A35303D0603197C2A7D2AF3
:1004F800952A36303D060319822A832A952A3730F1
:100508003D060319882A892A952A38303D06031999
:100518008E2A8F2A952A39303D06031D942A952A5A
:100528004F2A7B080A128A11C5270A128A117A08EB
:100538000A128A11C5270A128A11831203133F0867
:100548000A128A11C5270A128A11831203133E0858
:100558000A128A11C5270A128A11831203133D0849
:100568000A128A11C5270A128A110D300A128A1135
:10057800C5270A128A110A300A128A11C5270A12D7
:100588008A11F20101300A128A111D270A128A11F2
:10059800F201F20A7B080A128A111D270A128A112F
:1005A800F201F20A7A080A128A111D270A128A1120
:1005B800F201F20A831203133F080A128A111D2757
:1005C8000A128A11F201F20A831203133E080A1270
:1005D8008A111D270A128A11F201F20A83120313E3
:1005E8003D080A128A111D270A128A118312031361
:1005F800BC010A128A11E1270A128A110A128A1109
:100608000B230A128A115B280A128A110C28692BFB
:100618008C1A0F2B102B412B6308DC00DD015C08C2
:10062800D3005D08D4004030D5000A128A11952302
:100638000A128A11F201C0300A128A111D270A1201
:100648008A114030F6000030F7000A128A119B2602
:100658000A128A11013083120313E302063083124F
:100668000313DE001330DD00AD30DC00DC0B3A2B69
:10067800DD0B3A2BDE0B3A2B692BF20101300A1203
:100688008A111D270A128A115F30F6008030F700A0
:100698000A128A119B260A128A11831203138C12DA
:1006A8003C30E3001A3083120313DE005E30DD00B5
:1006B8006D30DC00DC0B5E2BDD0B5E2BDE0B5E2B66
:1006C800652B831203131A08942B831203136308F0
:1006D800031D6F2B702B0C2BF20101300A128A11AB
:1006E8001D270A128A111430F6008030F7000A120A
:1006F8008A119B260A128A11831203138C123C302A
:10070800E3001A3083120313DE005E30DD006D3023
:10071800DC00DC0B8D2BDD0B8D2BDE0B8D2B942B56
:10072800080083120313D901D90A9E2B0130D60081
:100738005608D9075908F8000A300A128A11E12622
:100748000A128A11790883120313CB007808CA00A9
:100758005408CD005308CC000A128A117F250A12CA
:100768008A11831203134A084B04031DBC2BBD2BAB
:100778009A2BDA01DB01032C831203135A0859025E
:10078800FF3EF8000A300A128A11E1260A128A117D
:10079800790883120313D8007808D7005A08550738
:1007A800D600560884005808CB005708CA005408D9
:1007B800CD005308CC000A128A117F250A128A112B
:1007C800831203134A08303E831380005808F3004D
:1007D8005708F2005408F5005308F4000A128A1169
:1007E80042260A128A11730883120313D40072086E
:1007F800D3000130DA070318DB0A0030DB075B0897
:10080800803AD60080305602031D0C2C59085A0233
:10081800031C0F2C102CC02B831203135A085507E6
:10082800D600560884008313800108000F30F200B8
:10083800720883160313880483120313BA01060887
:10084800073886003A08113E84000A128A110A25E0
:100858000A128A11F20072088605B90139080D3E9C
:1008680084000A128A110A250A128A110805031D32
:100878003E2C3F2C482C641C422C432C482C6410E2
:100888000130F2007208B80739080D3E84000A12D8
:100898008A110A250A128A1108050319542C552CA5
:1008A800762C6418582C592C762C4130F300EE30F5
:1008B800F200F20B5D2CF30B5D2C00008312031386
:1008C80039080D3E84000A128A110A250A128A1173
:1008D80008050319702C712C762C6418742C752C4F
:1008E800762C64143808370603197B2C7C2C8A2C48
:1008F8003A08F20002300310F20DFF3E031D7F2C70
:1009080039087207BC003808B7009E2C0130F20085
:100918007208B90704303902031C932C942C322C2A
:100928000130F2007208BA0703303A02031C9D2C0A
:060938009E2C232C080098
:100A0000FF1B0A2D83137F1883170008840A03191C
:100A1000FF0A080005308A000408840A82070034AF
:100A200023343734343431342A343834353432349E
:100A30003034393436343334013402340434083435
:100A4000FE34FD34FB3443346F346434693463342E
:100A5000653420345334633461346434753474340D
:100A60006F34003441347434743465346E34643417
:100A70006534723465342E342E342E342E340034E2
:100A800041347434743465346E346434653472348F
:100A900065342E342E342E3400344134743474349E
:100AA00065346E3464346534723465342E342E34D7
:100AB000003441347434743465346E3464346534D1
:100AC000723465342E3400344134743474346534F3
:100AD0006E346434653472346534003452346934AD
:100AE000633465347634753474346F340034503480
:100AF000723465346D34693420342A3400348312FE
:100B00000313D001CB1F852D862D8D2DCA09CB094E
:100B1000CA0A0319CB0AD001D00ACD1F902D912DFE
:100B20009A2DCC09CD09CC0A0319CD0A0130CE008B
:100B30004E08D006D101D2014A084B040319A12D59
:100B4000A22DD92DCF01CF0AB02D01300310CA0D2F
:100B5000CB0DFF3E031DA62D0130CE004E08CF0762
:100B6000CB1FB32DB42DA52D01300310D10DD20D07
:100B7000FF3E031DB52D4B084D02031DC12D4A0834
:100B80004C02031CC42DC52DCC2D4A08CC024B08A9
:100B9000031CCD03CD02511401300310CB0CCA0C41
:100BA000FF3E031DCD2D0130CF02031DD82DD92DC1
:100BB000B42D50080319DD2DDE2DE32DD109D20906
:100BC000D10A0319D20A5208CB005108CA00080002
:100BD00083120313091189108230F700DD30F6000B
:100BE000F60BF02DF70BF02DF52D8312031389145E
:100BF000F20138300A128A111D270A128A11213097
:100C0000F7007630F600F60B032EF70B032E0000EC
:100C1000F20138300A128A111D270A128A11073090
:100C2000F7007D30F600F60B132EF70B132EF201B2
:100C300038300A128A111D270A128A11F20108306F
:100C40000A128A111D270A128A11F2010F300A12A4
:100C50008A111D270A128A11F20101300A128A1123
:100C60001D270A128A11F2010C300A128A111D275F
:100C70000A128A11F20180300A128A111D270A1203
:100C80008A110800F801F51F462E472E4E2EF40952
:100C9000F509F40A0319F50AF801F80AF31F512EB1
:100CA000522E572EF209F309F20A0319F30A7208B9
:100CB000730403195C2E5D2E8C2EF701F70A6B2E40
:100CC00001300310F20DF30DFF3E031D612E0130C4
:100CD000F6007608F707F31F6E2E6F2E602E73084E
:100CE0007502031D752E72087402031C782E792E6E
:100CF0007F2E7208F4027308031CF503F50201301D
:100D00000310F30CF20CFF3E031D802E0130F7029E
:100D1000031D8B2E8C2E6F2E78080319902E912E8A
:100D2000962EF409F509F40A0319F50A7508F3007B
:100D30007408F2000800F801F901C22EF201F20A6B
:100D400078087607C4007708C3000318C30AF81FA1
:100D5000AA2EC303831203134308C5004508FF00EE
:100D6000440884000A128A1100250A128A110A1204
:100D70008A111D270A128A110130F8070318F90A8F
:100D80000030F9077808760783120313C400770848
:100D9000C3000318C30AF81FCE2EC3038312031324
:100DA0004308C5004508FF00440884000A128A1160
:100DB00000250A128A11003A031DDF2EE02E9E2E16
:100DC000080083120313C5000130C8000030C900B9
:100DD000C601C701092F831203134508C300C401CC
:100DE0004308F2004408F3004908F5004808F400FD
:100DF0000A128A1146270A128A11730883120313F2
:100E0000C9007208C8000130C6070318C70A0030BD
:100E1000C7074708803AC30080304302031D122FE2
:100E200078084602031C152F162FEB2E831203138E
:100E30004908F9004808F8000800F5008316031374
:100E40008801891009118312031389147508880019
:100E5000720C031C0911031809151430F4007930C1
:100E6000F300F30B312FF40B312F362F83120313C2
:100E700089101430F4007930F300F30B3D2FF40B9C
:100E80003D2F422F8312031389140800F601F70146
:100E9000721C4B2F4C2F522F7408F6070318F70AB9
:100EA0007508F70701300310F40DF50DFF3E031D23
:100EB000532F01300310F30CF20CFF3E031D5A2F89
:100EC00072087304031D652F662F482F7708F300FF
:100ED0007608F20008000B1D6E2F6F2F6B2F0B1181
:100EE0000B1D732F742F702F0B110B1D782F792F63
:100EF000752F0B110B1D7D2F7E2F7A2F0B110B1DC4
:100F0000822F832F7F2F0B1171088A00700E8300B0
:100F1000FE0E7E0E0900F201F301942F0130F2075C
:100F20000318F30A0030F307403072061F3003192C
:100F30007306031D9C2F9D2F8E2F83120313010810
:100F4000F4000B11740808008316031307138717A6
:100F5000181533309900181283120313981783164B
:100F6000031398168312031318160800831603132D
:100F700081128111011581140114063083120313AB
:100F800081000B118B168B170800F20083120313DC
:100F90000C1ECB2FCC2FC62F7208990008006400BE
:100FA0008001840A0406031900340406D02F01349A
:100FB0000034003400343C348312031307148710C8
:0C0FC000080083120313071087140800B8
:08400000FF3FFF3FFF3FFF3FC0
:02400E003A3F37
:00000001FF
